{
  "abi": [
    {
      "type": "constructor",
      "inputs": [],
      "stateMutability": "nonpayable"
    },
    {
      "type": "function",
      "name": "CONFIRMATION_BLOCKS",
      "inputs": [],
      "outputs": [
        {
          "name": "",
          "type": "uint256",
          "internalType": "uint256"
        }
      ],
      "stateMutability": "view"
    },
    {
      "type": "function",
      "name": "DEFAULT_ADMIN_ROLE",
      "inputs": [],
      "outputs": [
        {
          "name": "",
          "type": "bytes32",
          "internalType": "bytes32"
        }
      ],
      "stateMutability": "view"
    },
    {
      "type": "function",
      "name": "INDEXER_ROLE",
      "inputs": [],
      "outputs": [
        {
          "name": "",
          "type": "bytes32",
          "internalType": "bytes32"
        }
      ],
      "stateMutability": "view"
    },
    {
      "type": "function",
      "name": "PAUSER_ROLE",
      "inputs": [],
      "outputs": [
        {
          "name": "",
          "type": "bytes32",
          "internalType": "bytes32"
        }
      ],
      "stateMutability": "view"
    },
    {
      "type": "function",
      "name": "bridgeOut",
      "inputs": [
        {
          "name": "ticker",
          "type": "string",
          "internalType": "string"
        },
        {
          "name": "amount",
          "type": "uint256",
          "internalType": "uint256"
        }
      ],
      "outputs": [],
      "stateMutability": "nonpayable"
    },
    {
      "type": "function",
      "name": "bridgeRequests",
      "inputs": [
        {
          "name": "",
          "type": "uint256",
          "internalType": "uint256"
        }
      ],
      "outputs": [
        {
          "name": "user",
          "type": "address",
          "internalType": "address"
        },
        {
          "name": "btcAddress",
          "type": "string",
          "internalType": "string"
        },
        {
          "name": "brc20Ticker",
          "type": "string",
          "internalType": "string"
        },
        {
          "name": "amount",
          "type": "uint256",
          "internalType": "uint256"
        },
        {
          "name": "btcTxHash",
          "type": "string",
          "internalType": "string"
        },
        {
          "name": "processed",
          "type": "bool",
          "internalType": "bool"
        },
        {
          "name": "timestamp",
          "type": "uint256",
          "internalType": "uint256"
        }
      ],
      "stateMutability": "view"
    },
    {
      "type": "function",
      "name": "deployWrappedToken",
      "inputs": [
        {
          "name": "ticker",
          "type": "string",
          "internalType": "string"
        },
        {
          "name": "name",
          "type": "string",
          "internalType": "string"
        },
        {
          "name": "symbol",
          "type": "string",
          "internalType": "string"
        },
        {
          "name": "maxSupply",
          "type": "uint256",
          "internalType": "uint256"
        }
      ],
      "outputs": [],
      "stateMutability": "nonpayable"
    },
    {
      "type": "function",
      "name": "getRoleAdmin",
      "inputs": [
        {
          "name": "role",
          "type": "bytes32",
          "internalType": "bytes32"
        }
      ],
      "outputs": [
        {
          "name": "",
          "type": "bytes32",
          "internalType": "bytes32"
        }
      ],
      "stateMutability": "view"
    },
    {
      "type": "function",
      "name": "getWrappedToken",
      "inputs": [
        {
          "name": "ticker",
          "type": "string",
          "internalType": "string"
        }
      ],
      "outputs": [
        {
          "name": "",
          "type": "address",
          "internalType": "address"
        }
      ],
      "stateMutability": "view"
    },
    {
      "type": "function",
      "name": "grantRole",
      "inputs": [
        {
          "name": "role",
          "type": "bytes32",
          "internalType": "bytes32"
        },
        {
          "name": "account",
          "type": "address",
          "internalType": "address"
        }
      ],
      "outputs": [],
      "stateMutability": "nonpayable"
    },
    {
      "type": "function",
      "name": "hasRole",
      "inputs": [
        {
          "name": "role",
          "type": "bytes32",
          "internalType": "bytes32"
        },
        {
          "name": "account",
          "type": "address",
          "internalType": "address"
        }
      ],
      "outputs": [
        {
          "name": "",
          "type": "bool",
          "internalType": "bool"
        }
      ],
      "stateMutability": "view"
    },
    {
      "type": "function",
      "name": "isUserRegistered",
      "inputs": [
        {
          "name": "user",
          "type": "address",
          "internalType": "address"
        }
      ],
      "outputs": [
        {
          "name": "",
          "type": "bool",
          "internalType": "bool"
        }
      ],
      "stateMutability": "view"
    },
    {
      "type": "function",
      "name": "nextRequestId",
      "inputs": [],
      "outputs": [
        {
          "name": "",
          "type": "uint256",
          "internalType": "uint256"
        }
      ],
      "stateMutability": "view"
    },
    {
      "type": "function",
      "name": "pause",
      "inputs": [],
      "outputs": [],
      "stateMutability": "nonpayable"
    },
    {
      "type": "function",
      "name": "paused",
      "inputs": [],
      "outputs": [
        {
          "name": "",
          "type": "bool",
          "internalType": "bool"
        }
      ],
      "stateMutability": "view"
    },
    {
      "type": "function",
      "name": "processBridgeIn",
      "inputs": [
        {
          "name": "user",
          "type": "address",
          "internalType": "address"
        },
        {
          "name": "ticker",
          "type": "string",
          "internalType": "string"
        },
        {
          "name": "amount",
          "type": "uint256",
          "internalType": "uint256"
        },
        {
          "name": "btcTxHash",
          "type": "string",
          "internalType": "string"
        }
      ],
      "outputs": [],
      "stateMutability": "nonpayable"
    },
    {
      "type": "function",
      "name": "processedTxHashes",
      "inputs": [
        {
          "name": "",
          "type": "string",
          "internalType": "string"
        }
      ],
      "outputs": [
        {
          "name": "",
          "type": "bool",
          "internalType": "bool"
        }
      ],
      "stateMutability": "view"
    },
    {
      "type": "function",
      "name": "registerUser",
      "inputs": [
        {
          "name": "btcAddress",
          "type": "string",
          "internalType": "string"
        }
      ],
      "outputs": [],
      "stateMutability": "nonpayable"
    },
    {
      "type": "function",
      "name": "renounceRole",
      "inputs": [
        {
          "name": "role",
          "type": "bytes32",
          "internalType": "bytes32"
        },
        {
          "name": "callerConfirmation",
          "type": "address",
          "internalType": "address"
        }
      ],
      "outputs": [],
      "stateMutability": "nonpayable"
    },
    {
      "type": "function",
      "name": "revokeRole",
      "inputs": [
        {
          "name": "role",
          "type": "bytes32",
          "internalType": "bytes32"
        },
        {
          "name": "account",
          "type": "address",
          "internalType": "address"
        }
      ],
      "outputs": [],
      "stateMutability": "nonpayable"
    },
    {
      "type": "function",
      "name": "setWrappedToken",
      "inputs": [
        {
          "name": "ticker",
          "type": "string",
          "internalType": "string"
        },
        {
          "name": "tokenAddress",
          "type": "address",
          "internalType": "address"
        }
      ],
      "outputs": [],
      "stateMutability": "nonpayable"
    },
    {
      "type": "function",
      "name": "supportsInterface",
      "inputs": [
        {
          "name": "interfaceId",
          "type": "bytes4",
          "internalType": "bytes4"
        }
      ],
      "outputs": [
        {
          "name": "",
          "type": "bool",
          "internalType": "bool"
        }
      ],
      "stateMutability": "view"
    },
    {
      "type": "function",
      "name": "unpause",
      "inputs": [],
      "outputs": [],
      "stateMutability": "nonpayable"
    },
    {
      "type": "function",
      "name": "userBtcAddresses",
      "inputs": [
        {
          "name": "",
          "type": "address",
          "internalType": "address"
        }
      ],
      "outputs": [
        {
          "name": "",
          "type": "string",
          "internalType": "string"
        }
      ],
      "stateMutability": "view"
    },
    {
      "type": "function",
      "name": "wrappedTokens",
      "inputs": [
        {
          "name": "",
          "type": "string",
          "internalType": "string"
        }
      ],
      "outputs": [
        {
          "name": "contractAddress",
          "type": "address",
          "internalType": "address"
        },
        {
          "name": "originalTicker",
          "type": "string",
          "internalType": "string"
        },
        {
          "name": "active",
          "type": "bool",
          "internalType": "bool"
        },
        {
          "name": "totalBridged",
          "type": "uint256",
          "internalType": "uint256"
        }
      ],
      "stateMutability": "view"
    },
    {
      "type": "event",
      "name": "BridgeBack",
      "inputs": [
        {
          "name": "user",
          "type": "address",
          "indexed": true,
          "internalType": "address"
        },
        {
          "name": "token",
          "type": "address",
          "indexed": true,
          "internalType": "address"
        },
        {
          "name": "amount",
          "type": "uint256",
          "indexed": false,
          "internalType": "uint256"
        },
        {
          "name": "btcAddress",
          "type": "string",
          "indexed": false,
          "internalType": "string"
        }
      ],
      "anonymous": false
    },
    {
      "type": "event",
      "name": "BridgeCompleted",
      "inputs": [
        {
          "name": "requestId",
          "type": "uint256",
          "indexed": true,
          "internalType": "uint256"
        },
        {
          "name": "user",
          "type": "address",
          "indexed": true,
          "internalType": "address"
        },
        {
          "name": "token",
          "type": "address",
          "indexed": true,
          "internalType": "address"
        },
        {
          "name": "amount",
          "type": "uint256",
          "indexed": false,
          "internalType": "uint256"
        }
      ],
      "anonymous": false
    },
    {
      "type": "event",
      "name": "BridgeRequestCreated",
      "inputs": [
        {
          "name": "requestId",
          "type": "uint256",
          "indexed": true,
          "internalType": "uint256"
        },
        {
          "name": "user",
          "type": "address",
          "indexed": true,
          "internalType": "address"
        },
        {
          "name": "ticker",
          "type": "string",
          "indexed": false,
          "internalType": "string"
        },
        {
          "name": "amount",
          "type": "uint256",
          "indexed": false,
          "internalType": "uint256"
        }
      ],
      "anonymous": false
    },
    {
      "type": "event",
      "name": "Paused",
      "inputs": [
        {
          "name": "account",
          "type": "address",
          "indexed": false,
          "internalType": "address"
        }
      ],
      "anonymous": false
    },
    {
      "type": "event",
      "name": "RoleAdminChanged",
      "inputs": [
        {
          "name": "role",
          "type": "bytes32",
          "indexed": true,
          "internalType": "bytes32"
        },
        {
          "name": "previousAdminRole",
          "type": "bytes32",
          "indexed": true,
          "internalType": "bytes32"
        },
        {
          "name": "newAdminRole",
          "type": "bytes32",
          "indexed": true,
          "internalType": "bytes32"
        }
      ],
      "anonymous": false
    },
    {
      "type": "event",
      "name": "RoleGranted",
      "inputs": [
        {
          "name": "role",
          "type": "bytes32",
          "indexed": true,
          "internalType": "bytes32"
        },
        {
          "name": "account",
          "type": "address",
          "indexed": true,
          "internalType": "address"
        },
        {
          "name": "sender",
          "type": "address",
          "indexed": true,
          "internalType": "address"
        }
      ],
      "anonymous": false
    },
    {
      "type": "event",
      "name": "RoleRevoked",
      "inputs": [
        {
          "name": "role",
          "type": "bytes32",
          "indexed": true,
          "internalType": "bytes32"
        },
        {
          "name": "account",
          "type": "address",
          "indexed": true,
          "internalType": "address"
        },
        {
          "name": "sender",
          "type": "address",
          "indexed": true,
          "internalType": "address"
        }
      ],
      "anonymous": false
    },
    {
      "type": "event",
      "name": "Unpaused",
      "inputs": [
        {
          "name": "account",
          "type": "address",
          "indexed": false,
          "internalType": "address"
        }
      ],
      "anonymous": false
    },
    {
      "type": "event",
      "name": "UserRegistered",
      "inputs": [
        {
          "name": "user",
          "type": "address",
          "indexed": true,
          "internalType": "address"
        },
        {
          "name": "btcAddress",
          "type": "string",
          "indexed": false,
          "internalType": "string"
        }
      ],
      "anonymous": false
    },
    {
      "type": "event",
      "name": "WrappedTokenDeployed",
      "inputs": [
        {
          "name": "ticker",
          "type": "string",
          "indexed": true,
          "internalType": "string"
        },
        {
          "name": "tokenAddress",
          "type": "address",
          "indexed": true,
          "internalType": "address"
        }
      ],
      "anonymous": false
    },
    {
      "type": "error",
      "name": "AccessControlBadConfirmation",
      "inputs": []
    },
    {
      "type": "error",
      "name": "AccessControlUnauthorizedAccount",
      "inputs": [
        {
          "name": "account",
          "type": "address",
          "internalType": "address"
        },
        {
          "name": "neededRole",
          "type": "bytes32",
          "internalType": "bytes32"
        }
      ]
    },
    {
      "type": "error",
      "name": "EnforcedPause",
      "inputs": []
    },
    {
      "type": "error",
      "name": "ExpectedPause",
      "inputs": []
    },
    {
      "type": "error",
      "name": "ReentrancyGuardReentrantCall",
      "inputs": []
    }
  ],
  "bytecode": {
    "object": "0x608060405234620000435760016002556200001a3362000048565b506200002633620000c8565b5062000032336200016a565b50604051613b779081620002088239f35b600080fd5b6001600160a01b031660008181527fad3228b676f7d3cd4284a5443f17f1962b36e491b30a40b2405849e597ba5fb5602052604081205490919060ff16620000c457818052816020526040822081835260205260408220600160ff19825416179055339160008051602062003d7f8339815191528180a4600190565b5090565b6001600160a01b031660008181527f4f2d58b762c7296c1e482d1f5910fe5f2ba986fd5298743f283626d82fb2401260205260408120549091907f6079ef92c469f60f827bc79ca21116dbad0e64f3070fe130cebe8b0bb18d9dad9060ff166200016557808352826020526040832082845260205260408320600160ff1982541617905560008051602062003d7f833981519152339380a4600190565b505090565b6001600160a01b031660008181527ff7c9542c591017a21c74b6f3fab6263c7952fc0aaf9db4c22a2a04ddc7f8674f60205260408120549091907f65d7a28e3265b37a6474929f336521b332c1681b933f6cb9f3376673440d862a9060ff166200016557808352826020526040832082845260205260408320600160ff1982541617905560008051602062003d7f833981519152339380a460019056fe60808060405260043610156200001457600080fd5b600090813560e01c90816301ffc9a71462001b3b575080630f90df5414620019145780630fb5f2b014620010d157806310a34fc61462001094578063163f7522146200104a578063248a9ca3146200101c578063271c0c6e1462000c0a5780632f2ff15d1462000bc557806336568abe1462000b765780633f4ba83a1462000b0657806342afd7a91462000aab5780634aaac3991462000a8d5780635c975abb1462000a685780636a84a9851462000a485780636ed6c06d146200075b578063704f1b9414620004df5780638456cb59146200047f57806391d1485414620004305780639f89c8a2146200036b578063a217fddf146200034d578063c2e9c12214620002f8578063c5b2345f1462000288578063cb3f217d14620001d6578063d547741f146200018d5763e63ab1e9146200014e57600080fd5b346200018a57806003193601126200018a5760206040517f65d7a28e3265b37a6474929f336521b332c1681b933f6cb9f3376673440d862a8152f35b80fd5b50346200018a5760403660031901126200018a57620001d2600435620001b262001c5d565b9080845283602052620001cc600160408620015462001fad565b62002094565b5080f35b50346200018a5760203660031901126200018a57600435906001600160401b0382116200018a5762000226602062000212366004860162001bfd565b816040519382858094519384920162001d79565b60039082019081520301902080546001600160a01b03166200024b6001830162001cc8565b91600360ff60028301541691015462000277604051948594855260806020860152608085019062001d9e565b911515604084015260608301520390f35b50346200018a5760203660031901126200018a57600435906001600160401b0382116200018a576020620002c0366004850162001bfd565b81620002d6604051928381519384920162001d79565b600390820190815281900382019020546040516001600160a01b039091168152f35b50346200018a5760203660031901126200018a57600435906001600160401b0382116200018a57602060ff620003378262000212366004880162001bfd565b8101600581520301902054166040519015158152f35b50346200018a57806003193601126200018a57602090604051908152f35b50346200018a5760203660031901126200018a57600435815260066020526040902080546001600160a01b0316620003a66001830162001cc8565b91620003b56002820162001cc8565b6200041f6003830154620003cc6004850162001cc8565b6200040b600660ff60058801541696015494620003fc604051998a998a5260e060208b015260e08a019062001d9e565b9088820360408a015262001d9e565b916060870152858203608087015262001d9e565b91151560a084015260c08301520390f35b50346200018a5760403660031901126200018a5760406200045062001c5d565b91600435815280602052209060018060a01b0316600052602052602060ff604060002054166040519015158152f35b50346200018a57806003193601126200018a576200049c62001f50565b620004a662001fd4565b600160ff19815416176001557f62e78cea01bee320cd4e420270b5ea74000d11b0c9f74754ebdbfc544b05a2586020604051338152a180f35b50346200018a5760208060031936011262000757576001600160401b0360043581811162000753576200051790369060040162001bfd565b908151156200070e573384526004835262000536604085205462001c8b565b620006c9573384526004835260408420908251908111620006b5576200055d825462001c8b565b601f81116200066d575b5083601f8211600114620005e15791817f48cac28ad4dc618e15f4c2dd5e97751182f166de97b25618318b2112aa951a2f9492620005cf948891620005d5575b508160011b916000199060031b1c19161790555b604051918291858352339583019062001d9e565b0390a280f35b905083015138620005a7565b82865284862090601f198316875b878282106200065657505092620005cf9492600192827f48cac28ad4dc618e15f4c2dd5e97751182f166de97b25618318b2112aa951a2f9896106200063c575b5050811b019055620005bb565b85015160001960f88460031b161c1916905538806200062f565b600184958293958a015181550194019201620005ef565b828652848620601f830160051c810191868410620006aa575b601f0160051c01905b8181106200069e575062000567565b8681556001016200068f565b909150819062000686565b634e487b7160e01b85526041600452602485fd5b60405162461bcd60e51b815260048101849052601760248201527f5573657220616c726561647920726567697374657265640000000000000000006044820152606490fd5b60405162461bcd60e51b815260048101849052601b60248201527f42544320616464726573732063616e6e6f7420626520656d70747900000000006044820152606490fd5b8380fd5b5080fd5b50346200018a5760403660031901126200018a576004356001600160401b03811162000757576200079190369060040162001bfd565b906024918235620007a162001fd4565b620007ab62001ff3565b620007b881151562001de7565b604051908251620007ef60ff60026020958681818a0196620007dc81838a62001d79565b8101600381520301902001541662001e34565b3385526004835262000805604086205462001c8b565b1562000a0e5760405184516200081d81838562001d79565b600390820190815281900384019020546040516370a0823160e01b81523360048201526001600160a01b03909116949084818981895afa9081156200098d579084918891620009d7575b50106200099c573386526004845260408620853b15620009985786620008b59160405180938192633a2e764f60e21b8352336004840152888d84015260606044840152606483019062001e77565b0381838a5af180156200098d5785929188916200096c575b505090600392620008ea9260405193849283925192839162001d79565b810184815203019020018054908282039182116200095957907ffb9422a7ab81bf2c01efc270cfd1e477a1b4b77baa9947cabd0fbe596aa7cc8f929155338552600483526040808620938151928352820152806200094e3394604083019062001e77565b0390a3600160025580f35b634e487b7160e01b865260116004528686fd5b6200097a9192935062001bc7565b620009895783908638620008cd565b8580fd5b6040513d89823e3d90fd5b8680fd5b60405162461bcd60e51b81526004810185905260148189015273496e73756666696369656e742062616c616e636560601b6044820152606490fd5b809250868092503d831162000a06575b620009f3818362001bdb565b8101031262000998578390513862000867565b503d620009e7565b60405162461bcd60e51b81526004810184905260138188015272155cd95c881b9bdd081c9959da5cdd195c9959606a1b6044820152606490fd5b50346200018a57806003193601126200018a576020600754604051908152f35b50346200018a57806003193601126200018a57602060ff600154166040519015158152f35b50346200018a57806003193601126200018a57602060405160068152f35b50346200018a5760203660031901126200018a5762000b029062000aed906040906001600160a01b0362000ade62001c74565b16815260046020522062001cc8565b60405191829160208352602083019062001d9e565b0390f35b50346200018a57806003193601126200018a5762000b2362001f50565b60015460ff81161562000b645760ff19166001557f5db9ee0a495bf2e6ff9c91a7834c1ba4fdd244a5e8aa4e537bd38aeae4b073aa6020604051338152a180f35b604051638dfc202b60e01b8152600490fd5b50346200018a5760403660031901126200018a5762000b9462001c5d565b336001600160a01b0382160362000bb357620001d29060043562002094565b60405163334bd91960e11b8152600490fd5b50346200018a5760403660031901126200018a57620001d260043562000bea62001c5d565b908084528360205262000c04600160408620015462001fad565b62002015565b50346200018a5760803660031901126200018a576001600160401b0390600435828111620007575762000c4290369060040162001bfd565b91602435818111620010185762000c5e90369060040162001bfd565b92604435828111620007535762000c7a90369060040162001bfd565b9162000c8562001f15565b604051928251906020968785019262000ca081888662001d79565b860160038152868960018060a01b0398899303019020541662000fdc5760405191611a3791828401928484108785111762000f725784939262000cfb62000d189362000d09936200210b883960808652608086019062001d9e565b908482038d86015262001d9e565b82810360408401528762001d9e565b906060606435910152039086f0801562000fd157841693604051635adfeef560e11b81528781600481895afa9081156200098d57879162000f9e575b50853b15620009985760405190632f2ff15d60e01b825260048201523060248201528681604481838a5af180156200098d5790879162000f86575b50506040519262000da08462001b95565b85845287840190858252604085019260019081855262000dd48b60608901978c8952604051809381928d5192839162001d79565b810160038152030190209651166001600160601b0360a01b8754161786558086019251998a5192831162000f725762000e0e845462001c8b565b601f811162000f2b575b50899a8a999a5081601f851160011462000eae5750928062000e7195938193600399989662000e7b9d9462000ea2575b50501b9160001990881b1c19161790555b511515600285019060ff801983541691151516179055565b5191015562001dc5565b7f0a2d91cd4ac524a207b5cb5d5ad9461a1f87f505caff68bb84ff01e83d6b86138380a380f35b01519250388062000e48565b9294959697989950601f198416868d52838d20938d905b82821062000f135750509262000e71959285926003999662000e7b9d9c9b99961062000efa575b505050811b01905562000e59565b0151600019838a1b60f8161c1916905538808062000eec565b80888697829497870151815501960194019062000ec5565b848b52818b20601f850160051c81019183861062000f67575b601f0160051c01905b81811062000f5c575062000e18565b8b8155830162000f4d565b909150819062000f44565b634e487b7160e01b8a52604160045260248afd5b62000f919062001bc7565b6200098957853862000d8f565b90508781813d831162000fc9575b62000fb8818362001bdb565b810103126200099857513862000d54565b503d62000fac565b6040513d87823e3d90fd5b60405162461bcd60e51b8152600481018990526014602482015273546f6b656e20616c72656164792065786973747360601b6044820152606490fd5b8280fd5b50346200018a5760203660031901126200018a57600160406020926004358152808452200154604051908152f35b50346200018a5760203660031901126200018a576020906200108a906040906001600160a01b036200107b62001c74565b16815260048452205462001c8b565b1515604051908152f35b50346200018a57806003193601126200018a5760206040517f6079ef92c469f60f827bc79ca21116dbad0e64f3070fe130cebe8b0bb18d9dad8152f35b50346200018a5760803660031901126200018a57620010ef62001c74565b6024356001600160401b03811162001018576200111190369060040162001bfd565b906064356001600160401b03811162000753576200113490369060040162001bfd565b917f6079ef92c469f60f827bc79ca21116dbad0e64f3070fe130cebe8b0bb18d9dad808552846020526040852033865260205260ff60408620541615620018f657506200118062001fd4565b6200118a62001ff3565b6001600160a01b03821615620018ba57620011a9604435151562001de7565b60ff6040516020818651620011c28183858b0162001d79565b8101600581520301902054166200187557620011f260ff60026040516020818651620007dc8183858b0162001d79565b6007549060001982146200186157600182016007556001600160a01b0383168552600460205260408086209051906001600160401b0360e08301908111908311176200184d5760e082016040526001600160a01b0385168252620012569062001cc8565b906020810191825282604082015260443560608201528560808201528660a08201524260c08201528387526006602052604087209160018060a01b038251166001600160601b0360a01b845416178355518051906001600160401b0382116200168f578190620012ca600186015462001c8b565b601f8111620017f8575b50602090601f831160011462001784578a9262001778575b50508160011b916000199060031b1c19161760018301555b60408101518051906001600160401b0382116200168f5781906200132c600286015462001c8b565b601f811162001723575b50602090601f8311600114620016af578a92620016a3575b50508160011b916000199060031b1c19161760028301555b6060810151600383015560808101518051906001600160401b0382116200168f5762001396600485015462001c8b565b601f811162001646575b50602090601f8311600114620015cf5791806006949260c0948c92620015c3575b50508160011b916000199060031b1c19161760048501555b620013f960a08201511515600586019060ff801983541691151516179055565b01519101556040516020818651620014158183858b0162001d79565b8101600581520301902060ff199060018282541617905560405182516200144181836020870162001d79565b60039082019081528190036020019020546001600160a01b03169486863b156200018a576040516333eba6f160e11b81526001600160a01b03871660048201526044803560248301526060908201529182908190620014a590606483019062001d9e565b0381838a5af180156200098d57620015ad575b5060036040516020818551620014d28183858a0162001d79565b810184815203019020018054906044358201809211620015995755828652600660205260016005604088200191825416179055817f596a7e53ea9779914cc9de9d5b51e5ac4aa34ab38ee8126ed955c1d0f136a2236200153e6040519360408552604085019062001d9e565b60443560208501526001600160a01b038616939081900390a360405160443581526001600160a01b03909216917f9cebc392147d3093fac183a2dcf097ed7ddaa4ae74009bb2caa244d276d7dfc690602090a4600160025580f35b634e487b7160e01b88526011600452602488fd5b620015bb9096919662001bc7565b9438620014b8565b015190503880620013c1565b90600485018a5260208a20918a5b601f19851681106200162d5750926006949260019260c09583601f1981161062001613575b505050811b016004850155620013d9565b015160001960f88460031b161c1916905538808062001602565b91926020600181928685015181550194019201620015dd565b600485018a5260208a20601f840160051c81016020851062001687575b601f830160051c820181106200167b575050620013a0565b8b815560010162001663565b508062001663565b634e487b7160e01b89526041600452602489fd5b0151905038806200134e565b9250600285018a5260208a20908a935b601f198416851062001707576001945083601f19811610620016ed575b505050811b01600283015562001366565b015160001960f88460031b161c19169055388080620016dc565b81810151835560209485019460019093019290910190620016bf565b909150600285018a5260208a20601f840160051c81016020851062001770575b90849392915b601f830160051c820181106200176157505062001336565b8c815585945060010162001749565b508062001743565b015190503880620012ec565b9250600185018a5260208a20908a935b601f1984168510620017dc576001945083601f19811610620017c2575b505050811b01600183015562001304565b015160001960f88460031b161c19169055388080620017b1565b8181015183556020948501946001909301929091019062001794565b909150600185018a5260208a20601f840160051c81016020851062001845575b90849392915b601f830160051c8201811062001836575050620012d4565b8c81558594506001016200181e565b508062001818565b634e487b7160e01b87526041600452602487fd5b634e487b7160e01b85526011600452602485fd5b60405162461bcd60e51b815260206004820152601d60248201527f5472616e73616374696f6e20616c72656164792070726f6365737365640000006044820152606490fd5b60405162461bcd60e51b8152602060048201526014602482015273496e76616c69642075736572206164647265737360601b6044820152606490fd5b6044906040519063e2517d3f60e01b82523360048301526024820152fd5b50346200018a5760403660031901126200018a576001600160401b039060043582811162000757576200194c90369060040162001bfd565b6200195662001c5d565b906200196162001f15565b6001600160a01b0391821691821562001afe5760405190620019838262001b95565b8382526020958683018481526040840191600180845260608601948986526040518b8181620019b98c8381519384920162001d79565b810160038152030190209651166001600160601b0360a01b8754161786558086019251998a5192831162000f7257620019f3845462001c8b565b601f811162001ab7575b50899a8a999a5081601f851160011462001a545750928062000e7195938193600399989662000e7b9d9462000ea25750501b9160001990881b1c1916179055511515600285019060ff801983541691151516179055565b9294959697989950601f198416868d52838d20938d905b82821062001a9f5750509262000e71959285926003999662000e7b9d9c9b99961062000efa57505050811b01905562000e59565b80888697829497870151815501960194019062001a6b565b848b52818b20601f850160051c81019183861062001af3575b601f0160051c01905b81811062001ae85750620019fd565b8b8155830162001ad9565b909150819062001ad0565b60405162461bcd60e51b8152602060048201526015602482015274496e76616c696420746f6b656e206164647265737360581b6044820152606490fd5b90503462000757576020366003190112620007575760043563ffffffff60e01b8116809103620010185760209250637965db0b60e01b811490811562001b83575b5015158152f35b6301ffc9a760e01b1490503862001b7c565b608081019081106001600160401b0382111762001bb157604052565b634e487b7160e01b600052604160045260246000fd5b6001600160401b03811162001bb157604052565b90601f801991011681019081106001600160401b0382111762001bb157604052565b81601f8201121562001c58578035906001600160401b03821162001bb1576040519262001c35601f8401601f19166020018562001bdb565b8284526020838301011162001c5857816000926020809301838601378301015290565b600080fd5b602435906001600160a01b038216820362001c5857565b600435906001600160a01b038216820362001c5857565b90600182811c9216801562001cbd575b602083101462001ca757565b634e487b7160e01b600052602260045260246000fd5b91607f169162001c9b565b9060405191826000825462001cdd8162001c8b565b9081845260209460019160018116908160001462001d55575060011462001d12575b50505062001d109250038362001bdb565b565b600090815285812095935091905b81831062001d3c57505062001d10935082010138808062001cff565b8554888401850152948501948794509183019162001d20565b9250505062001d1094925060ff191682840152151560051b82010138808062001cff565b60005b83811062001d8d5750506000910152565b818101518382015260200162001d7c565b9060209162001db98151809281855285808601910162001d79565b601f01601f1916010190565b62001ddf9060206040519282848094519384920162001d79565b810103902090565b1562001def57565b60405162461bcd60e51b815260206004820152601d60248201527f416d6f756e74206d7573742062652067726561746572207468616e20300000006044820152606490fd5b1562001e3c57565b60405162461bcd60e51b8152602060048201526013602482015272151bdad95b881b9bdd081cdd5c1c1bdc9d1959606a1b6044820152606490fd5b80546000939262001e888262001c8b565b9182825260209360019160018116908160001462001ef5575060011462001eb1575b5050505050565b90939495506000929192528360002092846000945b83861062001ee05750505050010190388080808062001eaa565b80548587018301529401938590820162001ec6565b60ff19168685015250505090151560051b01019150388080808062001eaa565b3360009081527fad3228b676f7d3cd4284a5443f17f1962b36e491b30a40b2405849e597ba5fb5602052604081205460ff1615620018f65750565b3360009081527ff7c9542c591017a21c74b6f3fab6263c7952fc0aaf9db4c22a2a04ddc7f8674f60205260409020547f65d7a28e3265b37a6474929f336521b332c1681b933f6cb9f3376673440d862a9060ff1615620018f65750565b80600052600060205260406000203360005260205260ff6040600020541615620018f65750565b60ff6001541662001fe157565b60405163d93c066560e01b8152600490fd5b6002805414620020035760028055565b604051633ee5aeb560e01b8152600490fd5b9060009180835282602052604083209160018060a01b03169182845260205260ff604084205416156000146200208f57808352826020526040832082845260205260408320600160ff198254161790557f2f8788117e7eff1d82e926ec794901d17c78024a50270940304540a733656f0d339380a4600190565b505090565b9060009180835282602052604083209160018060a01b03169182845260205260ff6040842054166000146200208f5780835282602052604083208284526020526040832060ff1981541690557ff6391f5c32d9c69d2a47ea670b442974b53935d1edc7fd64eb21e047a839171b339380a460019056fe60a060405234620004db5762001a37803803806200001d81620004e0565b9283398101608082820312620004db5781516001600160401b0390818111620004db57826200004e91850162000506565b91602080850151838111620004db57826200006b91870162000506565b916040860151848111620004db576060916200008991880162000506565b95015194845191848311620003db576003938454936001978886811c96168015620004d0575b84871014620004ba578190601f9687811162000464575b508490878311600114620003fd57600092620003f1575b505060001982881b1c191690881b1785555b8051868111620003db5760049182548981811c91168015620003d0575b85821014620003bb5790818784931162000365575b508490878311600114620002fe57600092620002f2575b505060001982881b1c191690881b1781555b8251958611620002dd57600754908782811c92168015620002d2575b83831014620002bd575083811162000271575b5080928511600114620002015750938394918492600095620001f5575b50501b92600019911b1c1916176007555b608052620001b53362000578565b50620001c133620005f9565b50620001cd336200069c565b506040516112dc90816200073b8239608051818181610412015281816105de015261083e0152f35b01519350388062000196565b92919084601f198116600760005285600020956000905b898383106200025657505050106200023b575b50505050811b01600755620001a7565b01519060f884600019921b161c19169055388080806200022b565b85870151895590970196948501948893509081019062000218565b6007600052816000208480880160051c820192848910620002b3575b0160051c019087905b828110620002a657505062000179565b6000815501879062000296565b925081926200028d565b602290634e487b7160e01b6000525260246000fd5b91607f169162000166565b604190634e487b7160e01b6000525260246000fd5b01519050388062000138565b908a9350601f1983169185600052866000209260005b888282106200034e575050841162000335575b505050811b0181556200014a565b0151600019838a1b60f8161c1916905538808062000327565b8385015186558e9790950194938401930162000314565b90915083600052846000208780850160051c820192878610620003b1575b918c91869594930160051c01915b828110620003a157505062000121565b600081558594508c910162000391565b9250819262000383565b602284634e487b7160e01b6000525260246000fd5b90607f16906200010c565b634e487b7160e01b600052604160045260246000fd5b015190503880620000dd565b908a9350601f1983169189600052866000209260005b888282106200044d575050841162000434575b505050811b018555620000ef565b0151600019838a1b60f8161c1916905538808062000426565b8385015186558e9790950194938401930162000413565b90915087600052846000208780850160051c820192878610620004b0575b918c91869594930160051c01915b828110620004a0575050620000c6565b600081558594508c910162000490565b9250819262000482565b634e487b7160e01b600052602260045260246000fd5b95607f1695620000af565b600080fd5b6040519190601f01601f191682016001600160401b03811183821017620003db57604052565b919080601f84011215620004db5782516001600160401b038111620003db576020906200053c601f8201601f19168301620004e0565b92818452828287010111620004db5760005b8181106200056457508260009394955001015290565b85810183015184820184015282016200054e565b6001600160a01b031660008181527f05b8ccbb9d4d8fb16ea74ce3c29a41f1b461fbdaff4714a0d9a8eb05499746bc602052604081205490919060ff16620005f55781805260056020526040822081835260205260408220600160ff19825416179055339160008051602062001a178339815191528180a4600190565b5090565b6001600160a01b031660008181527f988aeb3f2a802de2ecc83b89d9bb5001cae38c2cd77d61f12e069385e0b07e3560205260408120549091907f52ba824bfabc2bcfcdf7f0edbb486ebb05e1836c90e78047efeb949990f72e5f9060ff16620006975780835260056020526040832082845260205260408320600160ff1982541617905560008051602062001a17833981519152339380a4600190565b505090565b6001600160a01b031660008181527f99f2891db7a8db76249871a02b43b68c0bb8f22ef8a3bc1034ae9375ef6b7c3c60205260408120549091907f65d7a28e3265b37a6474929f336521b332c1681b933f6cb9f3376673440d862a9060ff16620006975780835260056020526040832082845260205260408320600160ff1982541617905560008051602062001a17833981519152339380a460019056fe608060408181526004908136101561001657600080fd5b600092833560e01c90816301ffc9a714610db55750806306fdde0314610ce6578063095ea7b314610c3c57806318160ddd14610c1d57806323b872dd14610b2a578063248a9ca314610aff5780632f2ff15d14610ad7578063313ce56714610abb57806336568abe14610a745780633f4ba83a14610a0a5780634a05ae93146109d25780635c975abb146109ae57806367a1791a1461098f57806367d74de2146107f457806370a08231146107bd5780638456cb591461076257806391d148541461071b57806395d89b4114610624578063a217fddf14610609578063a66a5c65146105c1578063a9059cbb14610590578063aa4950e314610470578063b5bfddea14610435578063c409d4d9146103fa578063d547741f146103bc578063dd62ed3e14610373578063e63ab1e9146103345763e8b9d93c1461015857600080fd5b346103305761016636610eb2565b90919261017161110f565b610179611288565b610184831515610f3b565b60018060a01b038416948587526020948786528483892054106102f757868852600886528483892054106102bc57868852600886528288206101c7868254610faa565b90556101d585600954610faa565b60095586156102a65786885287865282882054918583106102725750509161026c91847f35e2167161db5b6e560d143c51984d248beb108dc517fb4b51c4808cc4498811969594888a528987520381892055836002540360025587877fddf252ad1be2c89b69c2b068fc378daa952ba7f163c4a11628f55a4df523b3ef878451888152a38080519586958652850152830190610e09565b0390a280f35b835163391434e360e21b81526001600160a01b03909216908201908152602081018390526040810186905281906060010390fd5b50866024925191634b637e8f60e11b8352820152fd5b5084606492519162461bcd60e51b83528201526016602482015275115e18d959591cc8189c9a5919d95908185b5bdd5b9d60521b6044820152fd5b5084606492519162461bcd60e51b83528201526014602482015273496e73756666696369656e742062616c616e636560601b6044820152fd5b8280fd5b83823461036f578160031936011261036f57602090517f65d7a28e3265b37a6474929f336521b332c1681b933f6cb9f3376673440d862a8152f35b5080fd5b83823461036f578060031936011261036f5780602092610391610e49565b610399610e64565b6001600160a01b0391821683526001865283832091168252845220549051908152f35b50346103305780600319360112610330576103f691356103f160016103df610e64565b9383875260056020528620015461116b565b611211565b5080f35b83823461036f578160031936011261036f57602090517f00000000000000000000000000000000000000000000000000000000000000008152f35b83823461036f578160031936011261036f57602090517f52ba824bfabc2bcfcdf7f0edbb486ebb05e1836c90e78047efeb949990f72e5f8152f35b50823461058d578060031936011261058d57815191816007549260018460011c9160018616958615610583575b6020968785108114610570578899509688969785829a5291826000146105495750506001146104ed575b5050506104e992916104da910385610e7a565b51928284938452830190610e09565b0390f35b9190869350600783527fa66cc928b5edb82af9bd49922954155ab7b0942694bea4ce44661d9a8736c6885b82841061053157505050820101816104da6104e96104c7565b8054848a018601528895508794909301928101610518565b60ff19168782015293151560051b860190930193508492506104da91506104e990506104c7565b634e487b7160e01b835260228a52602483fd5b92607f169261049d565b80fd5b83823461036f578060031936011261036f576020906105ba6105b0610e49565b6024359033610fb7565b5160018152f35b83823461036f578160031936011261036f576020906106026009547f0000000000000000000000000000000000000000000000000000000000000000610faa565b9051908152f35b83823461036f578160031936011261036f5751908152602090f35b50823461058d578060031936011261058d578151918184549260018460011c9160018616958615610711575b6020968785108114610570579087899a92868b999a9b5291826000146106e757505060011461068c575b85886104e9896104da848a0385610e7a565b815286935091907f8a35acfbc15ff81a39ae7d344fd709f28e8600b4aa8c65c6b64bfe7fe36bd19b5b8284106106cf57505050820101816104da6104e98861067a565b8054848a0186015288955087949093019281016106b5565b60ff19168882015294151560051b870190940194508593506104da92506104e9915089905061067a565b92607f1692610650565b5090346103305781600319360112610330578160209360ff9261073c610e64565b90358252600586528282206001600160a01b039091168252855220549151911615158152f35b83823461036f578160031936011261036f5760207f62e78cea01bee320cd4e420270b5ea74000d11b0c9f74754ebdbfc544b05a258916107a0611095565b6107a8611288565b600160ff19600654161760065551338152a180f35b83823461036f57602036600319011261036f5760209181906001600160a01b036107e5610e49565b16815280845220549051908152f35b50346103305761080336610eb2565b909161080d61110f565b610815611288565b6001600160a01b031693841561094c57610830831515610f3b565b61083c83600954610f87565b7f00000000000000000000000000000000000000000000000000000000000000001061091057509061026c7f53f34adc5274839ae8004dad53bf3b47baa078f68e80266e142092775593f3df939285875260086020528387206108a0848254610f87565b90556108ae83600954610f87565b6009556108bd83600254610f87565b6002558587528660205283872083815401905585877fddf252ad1be2c89b69c2b068fc378daa952ba7f163c4a11628f55a4df523b3ef60208751878152a383519384938452806020850152830190610e09565b606490602085519162461bcd60e51b8352820152601660248201527545786365656473206272696467656420737570706c7960501b6044820152fd5b606490602085519162461bcd60e51b8352820152601b60248201527f43616e6e6f74206d696e7420746f207a65726f206164647265737300000000006044820152fd5b83823461036f578160031936011261036f576020906009549051908152f35b83823461036f578160031936011261036f5760209060ff6006541690519015158152f35b83823461036f57602036600319011261036f5760209181906001600160a01b036109fa610e49565b1681526008845220549051908152f35b509034610330578260031936011261033057610a24611095565b6006549060ff821615610a66575060ff1916600655513381527f5db9ee0a495bf2e6ff9c91a7834c1ba4fdd244a5e8aa4e537bd38aeae4b073aa90602090a180f35b8251638dfc202b60e01b8152fd5b5082903461036f578060031936011261036f57610a8f610e64565b90336001600160a01b03831603610aac57506103f6919235611211565b5163334bd91960e11b81528390fd5b83823461036f578160031936011261036f576020905160128152f35b50346103305780600319360112610330576103f69135610afa60016103df610e64565b611191565b5090346103305760203660031901126103305781602093600192358152600585522001549051908152f35b50913461058d57606036600319011261058d57610b45610e49565b610b4d610e64565b916044359360018060a01b038316808352600160205286832033845260205286832054916000198310610b89575b6020886105ba898989610fb7565b868310610bf1578115610bda573315610bc3575082526001602090815286832033845281529186902090859003905582906105ba38610b7b565b8751634a1406b160e11b8152908101849052602490fd5b875163e602df0560e01b8152908101849052602490fd5b8751637dc7a0d960e11b8152339181019182526020820193909352604081018790528291506060010390fd5b83823461036f578160031936011261036f576020906002549051908152f35b509034610330578160031936011261033057610c56610e49565b602435903315610ccf576001600160a01b0316918215610cb857508083602095338152600187528181208582528752205582519081527f8c5be1e5ebec7d5bd14f71427d1e84f3dd0314c0f7b2291e5b200ac8c7c3b925843392a35160018152f35b8351634a1406b160e11b8152908101859052602490fd5b835163e602df0560e01b8152808401869052602490fd5b50823461058d578060031936011261058d57815191816003549260018460011c9160018616958615610dab575b6020968785108114610570578899509688969785829a529182600014610549575050600114610d4f575050506104e992916104da910385610e7a565b9190869350600383527fc2575a0e9e593c00f959f8c92f12db2869c3395a3b0502d05e2516446f71f85b5b828410610d9357505050820101816104da6104e96104c7565b8054848a018601528895508794909301928101610d7a565b92607f1692610d13565b84908434610330576020366003190112610330573563ffffffff60e01b81168091036103305760209250637965db0b60e01b8114908115610df8575b5015158152f35b6301ffc9a760e01b14905083610df1565b919082519283825260005b848110610e35575050826000602080949584010152601f8019910116010190565b602081830181015184830182015201610e14565b600435906001600160a01b0382168203610e5f57565b600080fd5b602435906001600160a01b0382168203610e5f57565b90601f8019910116810190811067ffffffffffffffff821117610e9c57604052565b634e487b7160e01b600052604160045260246000fd5b6060600319820112610e5f576004356001600160a01b0381168103610e5f57916024359167ffffffffffffffff604435818111610e5f5782602382011215610e5f578060040135918211610e9c5760405192610f18601f8401601f191660200185610e7a565b82845260248383010111610e5f5781600092602460209301838601378301015290565b15610f4257565b60405162461bcd60e51b815260206004820152601d60248201527f416d6f756e74206d7573742062652067726561746572207468616e20300000006044820152606490fd5b91908201809211610f9457565b634e487b7160e01b600052601160045260246000fd5b91908203918211610f9457565b916001600160a01b0380841692831561107c57169283156110635760009083825281602052604082205490838210611031575091604082827fddf252ad1be2c89b69c2b068fc378daa952ba7f163c4a11628f55a4df523b3ef958760209652828652038282205586815220818154019055604051908152a3565b60405163391434e360e21b81526001600160a01b03919091166004820152602481019190915260448101839052606490fd5b60405163ec442f0560e01b815260006004820152602490fd5b604051634b637e8f60e11b815260006004820152602490fd5b3360009081527f99f2891db7a8db76249871a02b43b68c0bb8f22ef8a3bc1034ae9375ef6b7c3c60205260409020547f65d7a28e3265b37a6474929f336521b332c1681b933f6cb9f3376673440d862a9060ff16156110f15750565b6044906040519063e2517d3f60e01b82523360048301526024820152fd5b3360009081527f988aeb3f2a802de2ecc83b89d9bb5001cae38c2cd77d61f12e069385e0b07e3560205260409020547f52ba824bfabc2bcfcdf7f0edbb486ebb05e1836c90e78047efeb949990f72e5f9060ff16156110f15750565b80600052600560205260406000203360005260205260ff60406000205416156110f15750565b906000918083526005602052604083209160018060a01b03169182845260205260ff6040842054161560001461120c5780835260056020526040832082845260205260408320600160ff198254161790557f2f8788117e7eff1d82e926ec794901d17c78024a50270940304540a733656f0d339380a4600190565b505090565b906000918083526005602052604083209160018060a01b03169182845260205260ff60408420541660001461120c578083526005602052604083208284526020526040832060ff1981541690557ff6391f5c32d9c69d2a47ea670b442974b53935d1edc7fd64eb21e047a839171b339380a4600190565b60ff6006541661129457565b60405163d93c066560e01b8152600490fdfea26469706673582212200d22c49c59481b0568275147b61b72bb387d13df5b12ace64cb80b5e78b0f65164736f6c634300081800332f8788117e7eff1d82e926ec794901d17c78024a50270940304540a733656f0da26469706673582212200c10deaa7d3c8466e594cae25bf29a3bb67bc9ebd9fe131d389552d9957cc0fb64736f6c634300081800332f8788117e7eff1d82e926ec794901d17c78024a50270940304540a733656f0d",
    "linkReferences": {}
  },
  "methodIdentifiers": {
    "CONFIRMATION_BLOCKS()": "4aaac399",
    "DEFAULT_ADMIN_ROLE()": "a217fddf",
    "INDEXER_ROLE()": "10a34fc6",
    "PAUSER_ROLE()": "e63ab1e9",
    "bridgeOut(string,uint256)": "6ed6c06d",
    "bridgeRequests(uint256)": "9f89c8a2",
    "deployWrappedToken(string,string,string,uint256)": "271c0c6e",
    "getRoleAdmin(bytes32)": "248a9ca3",
    "getWrappedToken(string)": "c5b2345f",
    "grantRole(bytes32,address)": "2f2ff15d",
    "hasRole(bytes32,address)": "91d14854",
    "isUserRegistered(address)": "163f7522",
    "nextRequestId()": "6a84a985",
    "pause()": "8456cb59",
    "paused()": "5c975abb",
    "processBridgeIn(address,string,uint256,string)": "0fb5f2b0",
    "processedTxHashes(string)": "c2e9c122",
    "registerUser(string)": "704f1b94",
    "renounceRole(bytes32,address)": "36568abe",
    "revokeRole(bytes32,address)": "d547741f",
    "setWrappedToken(string,address)": "0f90df54",
    "supportsInterface(bytes4)": "01ffc9a7",
    "unpause()": "3f4ba83a",
    "userBtcAddresses(address)": "42afd7a9",
    "wrappedTokens(string)": "cb3f217d"
  },
  "id": 27
}