{"abi":[{"type":"constructor","inputs":[],"stateMutability":"nonpayable"},{"type":"function","name":"COMMIT_PHASE_DURATION","inputs":[],"outputs":[{"name":"","type":"uint256","internalType":"uint256"}],"stateMutability":"view"},{"type":"function","name":"DEFAULT_ADMIN_ROLE","inputs":[],"outputs":[{"name":"","type":"bytes32","internalType":"bytes32"}],"stateMutability":"view"},{"type":"function","name":"MATCHER_ROLE","inputs":[],"outputs":[{"name":"","type":"bytes32","internalType":"bytes32"}],"stateMutability":"view"},{"type":"function","name":"MIN_COMMIT_TIME","inputs":[],"outputs":[{"name":"","type":"uint256","internalType":"uint256"}],"stateMutability":"view"},{"type":"function","name":"PAUSER_ROLE","inputs":[],"outputs":[{"name":"","type":"bytes32","internalType":"bytes32"}],"stateMutability":"view"},{"type":"function","name":"REVEAL_PHASE_DURATION","inputs":[],"outputs":[{"name":"","type":"uint256","internalType":"uint256"}],"stateMutability":"view"},{"type":"function","name":"batches","inputs":[{"name":"","type":"uint256","internalType":"uint256"}],"outputs":[{"name":"batchId","type":"uint256","internalType":"uint256"},{"name":"startTime","type":"uint256","internalType":"uint256"},{"name":"endTime","type":"uint256","internalType":"uint256"},{"name":"processed","type":"bool","internalType":"bool"},{"name":"totalOrders","type":"uint256","internalType":"uint256"}],"stateMutability":"view"},{"type":"function","name":"cancelOrder","inputs":[{"name":"orderId","type":"uint256","internalType":"uint256"}],"outputs":[],"stateMutability":"nonpayable"},{"type":"function","name":"commitOrder","inputs":[{"name":"commitment","type":"bytes32","internalType":"bytes32"}],"outputs":[],"stateMutability":"nonpayable"},{"type":"function","name":"committedOrders","inputs":[{"name":"","type":"uint256","internalType":"uint256"}],"outputs":[{"name":"trader","type":"address","internalType":"address"},{"name":"commitment","type":"bytes32","internalType":"bytes32"},{"name":"commitTime","type":"uint256","internalType":"uint256"},{"name":"batchId","type":"uint256","internalType":"uint256"},{"name":"status","type":"uint8","internalType":"enum OrderBook.OrderStatus"}],"stateMutability":"view"},{"type":"function","name":"createNewBatch","inputs":[],"outputs":[],"stateMutability":"nonpayable"},{"type":"function","name":"currentBatchId","inputs":[],"outputs":[{"name":"","type":"uint256","internalType":"uint256"}],"stateMutability":"view"},{"type":"function","name":"getBatchOrderIds","inputs":[{"name":"batchId","type":"uint256","internalType":"uint256"}],"outputs":[{"name":"","type":"uint256[]","internalType":"uint256[]"}],"stateMutability":"view"},{"type":"function","name":"getCurrentBatch","inputs":[],"outputs":[{"name":"","type":"tuple","internalType":"struct OrderBook.Batch","components":[{"name":"batchId","type":"uint256","internalType":"uint256"},{"name":"startTime","type":"uint256","internalType":"uint256"},{"name":"endTime","type":"uint256","internalType":"uint256"},{"name":"orderIds","type":"uint256[]","internalType":"uint256[]"},{"name":"processed","type":"bool","internalType":"bool"},{"name":"totalOrders","type":"uint256","internalType":"uint256"}]}],"stateMutability":"view"},{"type":"function","name":"getRoleAdmin","inputs":[{"name":"role","type":"bytes32","internalType":"bytes32"}],"outputs":[{"name":"","type":"bytes32","internalType":"bytes32"}],"stateMutability":"view"},{"type":"function","name":"grantRole","inputs":[{"name":"role","type":"bytes32","internalType":"bytes32"},{"name":"account","type":"address","internalType":"address"}],"outputs":[],"stateMutability":"nonpayable"},{"type":"function","name":"hasRole","inputs":[{"name":"role","type":"bytes32","internalType":"bytes32"},{"name":"account","type":"address","internalType":"address"}],"outputs":[{"name":"","type":"bool","internalType":"bool"}],"stateMutability":"view"},{"type":"function","name":"nextBatchId","inputs":[],"outputs":[{"name":"","type":"uint256","internalType":"uint256"}],"stateMutability":"view"},{"type":"function","name":"nextOrderId","inputs":[],"outputs":[{"name":"","type":"uint256","internalType":"uint256"}],"stateMutability":"view"},{"type":"function","name":"pause","inputs":[],"outputs":[],"stateMutability":"nonpayable"},{"type":"function","name":"paused","inputs":[],"outputs":[{"name":"","type":"bool","internalType":"bool"}],"stateMutability":"view"},{"type":"function","name":"processBatch","inputs":[{"name":"batchId","type":"uint256","internalType":"uint256"},{"name":"buyOrderIds","type":"uint256[]","internalType":"uint256[]"},{"name":"sellOrderIds","type":"uint256[]","internalType":"uint256[]"},{"name":"matchedAmounts","type":"uint256[]","internalType":"uint256[]"},{"name":"executionPrices","type":"uint256[]","internalType":"uint256[]"}],"outputs":[],"stateMutability":"nonpayable"},{"type":"function","name":"renounceRole","inputs":[{"name":"role","type":"bytes32","internalType":"bytes32"},{"name":"callerConfirmation","type":"address","internalType":"address"}],"outputs":[],"stateMutability":"nonpayable"},{"type":"function","name":"revealOrder","inputs":[{"name":"orderId","type":"uint256","internalType":"uint256"},{"name":"tokenA","type":"address","internalType":"address"},{"name":"tokenB","type":"address","internalType":"address"},{"name":"amount","type":"uint256","internalType":"uint256"},{"name":"price","type":"uint256","internalType":"uint256"},{"name":"salt","type":"uint256","internalType":"uint256"},{"name":"orderType","type":"uint8","internalType":"enum OrderBook.OrderType"}],"outputs":[],"stateMutability":"nonpayable"},{"type":"function","name":"revealedOrders","inputs":[{"name":"","type":"uint256","internalType":"uint256"}],"outputs":[{"name":"trader","type":"address","internalType":"address"},{"name":"tokenA","type":"address","internalType":"address"},{"name":"tokenB","type":"address","internalType":"address"},{"name":"amount","type":"uint256","internalType":"uint256"},{"name":"price","type":"uint256","internalType":"uint256"},{"name":"salt","type":"uint256","internalType":"uint256"},{"name":"orderType","type":"uint8","internalType":"enum OrderBook.OrderType"},{"name":"orderId","type":"uint256","internalType":"uint256"},{"name":"batchId","type":"uint256","internalType":"uint256"},{"name":"executed","type":"bool","internalType":"bool"}],"stateMutability":"view"},{"type":"function","name":"revokeRole","inputs":[{"name":"role","type":"bytes32","internalType":"bytes32"},{"name":"account","type":"address","internalType":"address"}],"outputs":[],"stateMutability":"nonpayable"},{"type":"function","name":"supportsInterface","inputs":[{"name":"interfaceId","type":"bytes4","internalType":"bytes4"}],"outputs":[{"name":"","type":"bool","internalType":"bool"}],"stateMutability":"view"},{"type":"function","name":"unpause","inputs":[],"outputs":[],"stateMutability":"nonpayable"},{"type":"event","name":"BatchCreated","inputs":[{"name":"batchId","type":"uint256","indexed":true,"internalType":"uint256"},{"name":"startTime","type":"uint256","indexed":false,"internalType":"uint256"},{"name":"endTime","type":"uint256","indexed":false,"internalType":"uint256"}],"anonymous":false},{"type":"event","name":"BatchProcessed","inputs":[{"name":"batchId","type":"uint256","indexed":true,"internalType":"uint256"},{"name":"totalMatches","type":"uint256","indexed":false,"internalType":"uint256"}],"anonymous":false},{"type":"event","name":"OrderCommitted","inputs":[{"name":"orderId","type":"uint256","indexed":true,"internalType":"uint256"},{"name":"trader","type":"address","indexed":true,"internalType":"address"},{"name":"commitment","type":"bytes32","indexed":false,"internalType":"bytes32"},{"name":"batchId","type":"uint256","indexed":false,"internalType":"uint256"}],"anonymous":false},{"type":"event","name":"OrderMatched","inputs":[{"name":"buyOrderId","type":"uint256","indexed":true,"internalType":"uint256"},{"name":"sellOrderId","type":"uint256","indexed":true,"internalType":"uint256"},{"name":"matchedAmount","type":"uint256","indexed":false,"internalType":"uint256"},{"name":"executionPrice","type":"uint256","indexed":false,"internalType":"uint256"}],"anonymous":false},{"type":"event","name":"OrderRevealed","inputs":[{"name":"orderId","type":"uint256","indexed":true,"internalType":"uint256"},{"name":"trader","type":"address","indexed":true,"internalType":"address"},{"name":"amount","type":"uint256","indexed":false,"internalType":"uint256"},{"name":"price","type":"uint256","indexed":false,"internalType":"uint256"},{"name":"orderType","type":"uint8","indexed":false,"internalType":"enum OrderBook.OrderType"}],"anonymous":false},{"type":"event","name":"Paused","inputs":[{"name":"account","type":"address","indexed":false,"internalType":"address"}],"anonymous":false},{"type":"event","name":"RoleAdminChanged","inputs":[{"name":"role","type":"bytes32","indexed":true,"internalType":"bytes32"},{"name":"previousAdminRole","type":"bytes32","indexed":true,"internalType":"bytes32"},{"name":"newAdminRole","type":"bytes32","indexed":true,"internalType":"bytes32"}],"anonymous":false},{"type":"event","name":"RoleGranted","inputs":[{"name":"role","type":"bytes32","indexed":true,"internalType":"bytes32"},{"name":"account","type":"address","indexed":true,"internalType":"address"},{"name":"sender","type":"address","indexed":true,"internalType":"address"}],"anonymous":false},{"type":"event","name":"RoleRevoked","inputs":[{"name":"role","type":"bytes32","indexed":true,"internalType":"bytes32"},{"name":"account","type":"address","indexed":true,"internalType":"address"},{"name":"sender","type":"address","indexed":true,"internalType":"address"}],"anonymous":false},{"type":"event","name":"Unpaused","inputs":[{"name":"account","type":"address","indexed":false,"internalType":"address"}],"anonymous":false},{"type":"error","name":"AccessControlBadConfirmation","inputs":[]},{"type":"error","name":"AccessControlUnauthorizedAccount","inputs":[{"name":"account","type":"address","internalType":"address"},{"name":"neededRole","type":"bytes32","internalType":"bytes32"}]},{"type":"error","name":"EnforcedPause","inputs":[]},{"type":"error","name":"ExpectedPause","inputs":[]},{"type":"error","name":"ReentrancyGuardReentrantCall","inputs":[]}],"bytecode":{"object":"0x6040608081523462000245576001806002556200001c336200024a565b506200002833620002ca565b5062000034336200036c565b50600854806200022d575b506007546000198114620002175760018101600755600881905582516020916001600160401b0391838101838111828210176200020157865260009485825286519360c0850185811082821117620001ed5788528385528585019242845288860188815260608701918252608087019489865260a08801968a88528a52600589528a8a20975188555160018801555160028701556003860190518051928311620001d957680100000000000000008311620001d95787908254848455808510620001ac575b5001908852868820885b8381106200019a57505050505090600591600484019051151560ff80198354169116179055519101556008549161012c4201908142116200018657507f07978a2d36cf05f633498b1178e77417882ed002fa4dae7c3d9e4dc989fe2c84918491825191428352820152a2516119ba90816200040a8239f35b634e487b7160e01b81526011600452602490fd5b8251828201559188019184016200010e565b838b528585848d2092830192015b828110620001ca57505062000104565b8c81558b9450879101620001ba565b634e487b7160e01b89526041600452602489fd5b634e487b7160e01b88526041600452602488fd5b634e487b7160e01b600052604160045260246000fd5b634e487b7160e01b600052601160045260246000fd5b6000526005602052426002836000200155386200003f565b600080fd5b6001600160a01b031660008181527fad3228b676f7d3cd4284a5443f17f1962b36e491b30a40b2405849e597ba5fb5602052604081205490919060ff16620002c657818052816020526040822081835260205260408220600160ff19825416179055339160008051602062001dc48339815191528180a4600190565b5090565b6001600160a01b031660008181527fa364f696a6c045481f027229b52d5f6627323c1ae901ff9bb8a960d331d4b3f660205260408120549091907fdf91394c13c48ebd5370100f1eb84afe3c6c47a78f9f9f874d5a9ec6afe0ae6b9060ff166200036757808352826020526040832082845260205260408320600160ff1982541617905560008051602062001dc4833981519152339380a4600190565b505090565b6001600160a01b031660008181527ff7c9542c591017a21c74b6f3fab6263c7952fc0aaf9db4c22a2a04ddc7f8674f60205260408120549091907f65d7a28e3265b37a6474929f336521b332c1681b933f6cb9f3376673440d862a9060ff166200036757808352826020526040832082845260205260408320600160ff1982541617905560008051602062001dc4833981519152339380a460019056fe608080604052600436101561001357600080fd5b60003560e01c90816301ffc9a7146115db575080630a763da1146115bd5780630caa9a46146115115780630d3c15cc146114f45780631875e8f5146112fe578063199dea7714611292578063248a9ca3146112635780632a58b330146112455780632d4d6cd9146111d65780632f2ff15d1461119757806336568abe146111505780633f4ba83a146110e657806347f89b4114610ee6578063514fcac714610df25780635c975abb14610dcf5780638456cb5914610d765780638462a7f814610d5857806391d1485414610d0b578063a217fddf14610cef578063ac3851cd14610bdb578063b2194ff514610ba0578063b32c4d8d14610b43578063c988fb2614610b27578063d547741f14610ae6578063dab3a37a1461070a578063e63ab1e9146106cf578063e8fee2f9146101745763f18cd0551461015357600080fd5b3461016f57600036600319011261016f57602060405160028152f35b600080fd5b3461016f5760a036600319011261016f5767ffffffffffffffff60243581811161016f576101a690369060040161168f565b60443582811161016f576101be90369060040161168f565b9160643581811161016f576101d790369060040161168f565b9060843590811161016f576101f090369060040161168f565b3360009081527fa364f696a6c045481f027229b52d5f6627323c1ae901ff9bb8a960d331d4b3f660205260409020549093907fdf91394c13c48ebd5370100f1eb84afe3c6c47a78f9f9f874d5a9ec6afe0ae6b9060ff16156106b15750610255611945565b600854600435101561066c57600435600052600560205260ff6004604060002001541661062757600435600052600560205260016040600020015461012c810190818111610611576101e001809111610611574211156105cc578251815180911490816105c1575b50806105b6575b156105795760005b8351811015610529576102df8185611796565b51906102eb8184611796565b516102f68286611796565b51926103028389611796565b519381600052600460205260406000209083600052604060002090600660ff818501541660028110156104da576104f05782015460ff1660028110156104da576001036104a05760098301549660ff88161580610491575b1561044c5760018060a01b038060018601541681600286015416149081610435575b50156103ff5760019760096040947f82877c5945532f956e6718f78f5606b7b5d8efef5e22121a3d9bf4e708873edd96828c60ff198096161791015501898282541617905585600052600360205260048460002001600282825416179055866000526002600485600020019182541617905582519182526020820152a3016102cc565b60405162461bcd60e51b815260206004820152600e60248201526d0a8ded6cadc40dad2e6dac2e8c6d60931b6044820152606490fd5b80915060028601541690600185015416148d61037c565b60405162461bcd60e51b815260206004820152601760248201527f4f726465727320616c72656164792065786563757465640000000000000000006044820152606490fd5b5060ff6009840154161561035a565b60405162461bcd60e51b815260206004820152601260248201527124b73b30b634b21039b2b6361037b93232b960711b6044820152606490fd5b634e487b7160e01b600052602160045260246000fd5b60405162461bcd60e51b815260206004820152601160248201527024b73b30b634b210313abc9037b93232b960791b6044820152606490fd5b8360043560005260056020526004604060002001600160ff19825416179055516040519081527f3838459cd794256a3c29bb3186da72029a8036c0f596fee1bd526f8eb9493d41602060043592a2005b60405162461bcd60e51b8152602060048201526015602482015274082e4e4c2f240d8cadccee8d040dad2e6dac2e8c6d605b1b6044820152606490fd5b5081518451146102c4565b9050825114856102bd565b60405162461bcd60e51b815260206004820152601760248201527f4e6f7420696e2070726f63657373696e672070686173650000000000000000006044820152606490fd5b634e487b7160e01b600052601160045260246000fd5b60405162461bcd60e51b815260206004820152601760248201527f426174636820616c72656164792070726f6365737365640000000000000000006044820152606490fd5b60405162461bcd60e51b815260206004820152601e60248201527f4261746368206e6f7420726561647920666f722070726f63657373696e6700006044820152606490fd5b6044906040519063e2517d3f60e01b82523360048301526024820152fd5b3461016f57600036600319011261016f5760206040517f65d7a28e3265b37a6474929f336521b332c1681b933f6cb9f3376673440d862a8152f35b3461016f5760e036600319011261016f5761072361163b565b604435906001600160a01b038216820361016f57600260c435101561016f5761074a611945565b610752611963565b600435600052600360205260406000209161077760018060a01b038454163314611758565b600483019182549260ff841660048110156104da57610aab5760038501549384600052600560205260016040600020015461012c8101808211610611578042119182610a95575b505015610a5a57600286015460028101809111610611574210610a1f576040519560208701966064358852608435604082015260a435606082015260c43560f81b60808201526061815260a081019167ffffffffffffffff988284108a8511176109d5576001908460405283519020910154036109eb57505060ff19166001179055604051936101408501908111908511176109d557610140840160405233845260018060a01b0316602084015260018060a01b031660408301526064356060830152608435608083015260a43560a083015260c43560c083015260043560e083015261010082015260006101208201526004356000526004602052604060002060018060a01b038251166bffffffffffffffffffffffff60a01b90818354161782556001820160018060a01b0360208501511682825416179055600282019060018060a01b0360408501511690825416179055606082015160038201556080820151600482015560a082015160058201556006810160c083015160028110156104da57610985936009926101209260ff8019835416911617905560e0810151600785015561010081015160088501550151151591019060ff801983541691151516179055565b604051606435815260843560208201526109a46040820160c43561162e565b33907f7bff35171bad917d46b272fa2f78fd42257c1a44eaf649394808604d56dc7be7606060043592a36001600255005b634e487b7160e01b600052604160045260246000fd5b62461bcd60e51b8252602060a4820152600e60c48201526d125b9d985b1a59081c995d99585b60921b60e490910152606490fd5b60405162461bcd60e51b8152602060048201526013602482015272151bdbc819585c9b1e481d1bc81c995d99585b606a1b6044820152606490fd5b60405162461bcd60e51b81526020600482015260136024820152724e6f7420696e2072657665616c20706861736560681b6044820152606490fd5b6101e001915081106106115742111587806107be565b60405162461bcd60e51b815260206004820152601360248201527213dc99195c881b9bdd0818dbdb5b5a5d1d1959606a1b6044820152606490fd5b3461016f57604036600319011261016f57610b25600435610b0561163b565b90806000526000602052610b2060016040600020015461182c565b6118d0565b005b3461016f57600036600319011261016f57602060405160b48152f35b3461016f57602036600319011261016f57600435600052600560205260a060406000208054906001810154906002810154600560ff6004840154169201549260405194855260208501526040840152151560608301526080820152f35b3461016f57600036600319011261016f5760206040517fdf91394c13c48ebd5370100f1eb84afe3c6c47a78f9f9f874d5a9ec6afe0ae6b8152f35b3461016f57600036600319011261016f57604051610bf881611651565b60008152600060a060209282848201528260408201526060808201528260808201520152600854600052600581526040600020604051610c3781611651565b8154815260019260018301549281830193845260028101549160408401928352610c63600383016116f6565b60608501908152600560ff6004850154169360808701941515855201549360a086019485526040519683885260e08801965184890152516040880152516060870152519360c06080870152845180915281610100870195019160005b828110610cdc578451151560a0890152855160c089015287870388f35b8351875295810195928101928801610cbf565b3461016f57600036600319011261016f57602060405160008152f35b3461016f57604036600319011261016f57610d2461163b565b600435600052600060205260406000209060018060a01b0316600052602052602060ff604060002054166040519015158152f35b3461016f57600036600319011261016f576020600754604051908152f35b3461016f57600036600319011261016f57610d8f6117d0565b610d97611945565b600160ff19815416176001557f62e78cea01bee320cd4e420270b5ea74000d11b0c9f74754ebdbfc544b05a2586020604051338152a1005b3461016f57600036600319011261016f57602060ff600154166040519015158152f35b3461016f57602036600319011261016f5760043560005260036020526040600020610e2760018060a01b038254163314611758565b600481019081549060ff821660048110156104da57610ea957610e486117aa565b9081610e99575b5015610e605760ff19166003179055005b60405162461bcd60e51b815260206004820152601160248201527043616e6e6f742063616e63656c206e6f7760781b6044820152606490fd5b6003915001546008541483610e4f565b60405162461bcd60e51b81526020600482015260156024820152744f72646572206e6f742063616e63656c6c61626c6560581b6044820152606490fd5b3461016f5760208060031936011261016f5760043590610f04611945565b610f0c611963565b81156110ad57610f1a6117aa565b156110735760065490610f2c82611749565b60065560085460405160a081019080821067ffffffffffffffff8311176109d557600491604052338152838101928684526040820142815260608301918252608083019460008652876000526003875260406000209360018060a01b039051166bffffffffffffffffffffffff60a01b85541617845551600184015551600283015551600382015501905160048110156104da5760ff801983541691161790556008546000526005815260036040600020018054600160401b8110156109d5576001810180835581101561105d5783916000528260002001556008546000526005815260056040600020016110218154611749565b9055600854906040519384528301527fd015a28dbee7bb4df295fb265bbc2b41a442b7a267e88753021ed3546b67f58a60403393a36001600255005b634e487b7160e01b600052603260045260246000fd5b6064906040519062461bcd60e51b8252600482015260136024820152724e6f7420696e20636f6d6d697420706861736560681b6044820152fd5b6064906040519062461bcd60e51b825260048201526012602482015271125b9d985b1a590818dbdb5b5a5d1b595b9d60721b6044820152fd5b3461016f57600036600319011261016f576110ff6117d0565b60015460ff81161561113e5760ff19166001557f5db9ee0a495bf2e6ff9c91a7834c1ba4fdd244a5e8aa4e537bd38aeae4b073aa6020604051338152a1005b604051638dfc202b60e01b8152600490fd5b3461016f57604036600319011261016f5761116961163b565b336001600160a01b0382160361118557610b25906004356118d0565b60405163334bd91960e11b8152600490fd5b3461016f57604036600319011261016f57610b256004356111b661163b565b908060005260006020526111d160016040600020015461182c565b611852565b3461016f5760208060031936011261016f576004356000526005815261120260036040600020016116f6565b906040519181839283018184528251809152816040850193019160005b82811061122e57505050500390f35b83518552869550938101939281019260010161121f565b3461016f57600036600319011261016f576020600654604051908152f35b3461016f57602036600319011261016f5760043560005260006020526020600160406000200154604051908152f35b3461016f57602036600319011261016f576004356000526003602052604060002060018060a01b03815416600182015491600281015460ff60046003840154930154169360405193845260208401526040830152606082015260048210156104da5760a0916080820152f35b3461016f57600036600319011261016f576113176117aa565b6114af5760085480611497575b5060075461133181611749565b600755806008556040516020918282019167ffffffffffffffff92818110848211176109d557604052600081526040519261136b84611651565b828452848401904282526040850192600084526060860190815260808601936000855260a0870195600087526000526005885260406000209651875560019351600188015551600287015560038601905180519283116109d557600160401b83116109d5578790825484845580851061146a575b5001906000528660002060005b8381106114595788886005896114148a511515600485019060ff801983541691151516179055565b519101556008549061012c4201804211610611577f07978a2d36cf05f633498b1178e77417882ed002fa4dae7c3d9e4dc989fe2c8491604091825191428352820152a2005b8251828201559188019184016113ec565b8360005285858460002092830192015b8281106114885750506113df565b600081558b945087910161147a565b60005260056020524260026040600020015580611324565b60405162461bcd60e51b815260206004820152601a60248201527f43757272656e74206261746368207374696c6c206163746976650000000000006044820152606490fd5b3461016f57600036600319011261016f57602060405161012c8152f35b3461016f57602036600319011261016f576004356000526004602052610140604060002060018060a01b03808254169181600182015416916002820154166115a86003830154600484015460058501549060ff6006870154169260078701549560ff600960088a015499015416986040519a8b5260208b015260408a01526060890152608088015260a087015260c086019061162e565b60e08401526101008301521515610120820152f35b3461016f57600036600319011261016f576020600854604051908152f35b3461016f57602036600319011261016f576004359063ffffffff60e01b821680920361016f57602091637965db0b60e01b811490811561161d575b5015158152f35b6301ffc9a760e01b14905083611616565b9060028210156104da5752565b602435906001600160a01b038216820361016f57565b60c0810190811067ffffffffffffffff8211176109d557604052565b90601f8019910116810190811067ffffffffffffffff8211176109d557604052565b81601f8201121561016f5780359160209167ffffffffffffffff84116109d5578360051b90604051946116c48584018761166d565b8552838086019282010192831161016f578301905b8282106116e7575050505090565b813581529083019083016116d9565b90604051918281549182825260209260208301916000526020600020936000905b82821061172f5750505061172d9250038361166d565b565b855484526001958601958895509381019390910190611717565b60001981146106115760010190565b1561175f57565b60405162461bcd60e51b815260206004820152600f60248201526e2737ba1037b93232b91037bbb732b960891b6044820152606490fd5b805182101561105d5760209160051b010190565b600854600052600560205260016040600020015461012c81018091116106115742111590565b3360009081527ff7c9542c591017a21c74b6f3fab6263c7952fc0aaf9db4c22a2a04ddc7f8674f60205260409020547f65d7a28e3265b37a6474929f336521b332c1681b933f6cb9f3376673440d862a9060ff16156106b15750565b80600052600060205260406000203360005260205260ff60406000205416156106b15750565b9060009180835282602052604083209160018060a01b03169182845260205260ff604084205416156000146118cb57808352826020526040832082845260205260408320600160ff198254161790557f2f8788117e7eff1d82e926ec794901d17c78024a50270940304540a733656f0d339380a4600190565b505090565b9060009180835282602052604083209160018060a01b03169182845260205260ff6040842054166000146118cb5780835282602052604083208284526020526040832060ff1981541690557ff6391f5c32d9c69d2a47ea670b442974b53935d1edc7fd64eb21e047a839171b339380a4600190565b60ff6001541661195157565b60405163d93c066560e01b8152600490fd5b60028054146119725760028055565b604051633ee5aeb560e01b8152600490fdfea2646970667358221220a29df6b9b6927f231cdb1a49ff7a6656dbe0be0937309d8ab7b73def34ecc3bb64736f6c634300081800332f8788117e7eff1d82e926ec794901d17c78024a50270940304540a733656f0d","linkReferences":{}},"methodIdentifiers":{"COMMIT_PHASE_DURATION()":"0d3c15cc","DEFAULT_ADMIN_ROLE()":"a217fddf","MATCHER_ROLE()":"b2194ff5","MIN_COMMIT_TIME()":"f18cd055","PAUSER_ROLE()":"e63ab1e9","REVEAL_PHASE_DURATION()":"c988fb26","batches(uint256)":"b32c4d8d","cancelOrder(uint256)":"514fcac7","commitOrder(bytes32)":"47f89b41","committedOrders(uint256)":"199dea77","createNewBatch()":"1875e8f5","currentBatchId()":"0a763da1","getBatchOrderIds(uint256)":"2d4d6cd9","getCurrentBatch()":"ac3851cd","getRoleAdmin(bytes32)":"248a9ca3","grantRole(bytes32,address)":"2f2ff15d","hasRole(bytes32,address)":"91d14854","nextBatchId()":"8462a7f8","nextOrderId()":"2a58b330","pause()":"8456cb59","paused()":"5c975abb","processBatch(uint256,uint256[],uint256[],uint256[],uint256[])":"e8fee2f9","renounceRole(bytes32,address)":"36568abe","revealOrder(uint256,address,address,uint256,uint256,uint256,uint8)":"dab3a37a","revealedOrders(uint256)":"0caa9a46","revokeRole(bytes32,address)":"d547741f","supportsInterface(bytes4)":"01ffc9a7","unpause()":"3f4ba83a"},"id":28}