{"abi":[{"type":"constructor","inputs":[{"name":"name","type":"string","internalType":"string"},{"name":"symbol","type":"string","internalType":"string"},{"name":"_originalTicker","type":"string","internalType":"string"},{"name":"_bridgedTotalSupply","type":"uint256","internalType":"uint256"}],"stateMutability":"nonpayable"},{"type":"function","name":"BRIDGE_ROLE","inputs":[],"outputs":[{"name":"","type":"bytes32","internalType":"bytes32"}],"stateMutability":"view"},{"type":"function","name":"DEFAULT_ADMIN_ROLE","inputs":[],"outputs":[{"name":"","type":"bytes32","internalType":"bytes32"}],"stateMutability":"view"},{"type":"function","name":"PAUSER_ROLE","inputs":[],"outputs":[{"name":"","type":"bytes32","internalType":"bytes32"}],"stateMutability":"view"},{"type":"function","name":"allowance","inputs":[{"name":"owner","type":"address","internalType":"address"},{"name":"spender","type":"address","internalType":"address"}],"outputs":[{"name":"","type":"uint256","internalType":"uint256"}],"stateMutability":"view"},{"type":"function","name":"approve","inputs":[{"name":"spender","type":"address","internalType":"address"},{"name":"value","type":"uint256","internalType":"uint256"}],"outputs":[{"name":"","type":"bool","internalType":"bool"}],"stateMutability":"nonpayable"},{"type":"function","name":"balanceOf","inputs":[{"name":"account","type":"address","internalType":"address"}],"outputs":[{"name":"","type":"uint256","internalType":"uint256"}],"stateMutability":"view"},{"type":"function","name":"bridgeBurn","inputs":[{"name":"from","type":"address","internalType":"address"},{"name":"amount","type":"uint256","internalType":"uint256"},{"name":"btcAddress","type":"string","internalType":"string"}],"outputs":[],"stateMutability":"nonpayable"},{"type":"function","name":"bridgeCapacityRemaining","inputs":[],"outputs":[{"name":"","type":"uint256","internalType":"uint256"}],"stateMutability":"view"},{"type":"function","name":"bridgeMint","inputs":[{"name":"to","type":"address","internalType":"address"},{"name":"amount","type":"uint256","internalType":"uint256"},{"name":"btcTxHash","type":"string","internalType":"string"}],"outputs":[],"stateMutability":"nonpayable"},{"type":"function","name":"bridgedAmounts","inputs":[{"name":"","type":"address","internalType":"address"}],"outputs":[{"name":"","type":"uint256","internalType":"uint256"}],"stateMutability":"view"},{"type":"function","name":"bridgedTotalSupply","inputs":[],"outputs":[{"name":"","type":"uint256","internalType":"uint256"}],"stateMutability":"view"},{"type":"function","name":"decimals","inputs":[],"outputs":[{"name":"","type":"uint8","internalType":"uint8"}],"stateMutability":"view"},{"type":"function","name":"getRoleAdmin","inputs":[{"name":"role","type":"bytes32","internalType":"bytes32"}],"outputs":[{"name":"","type":"bytes32","internalType":"bytes32"}],"stateMutability":"view"},{"type":"function","name":"grantRole","inputs":[{"name":"role","type":"bytes32","internalType":"bytes32"},{"name":"account","type":"address","internalType":"address"}],"outputs":[],"stateMutability":"nonpayable"},{"type":"function","name":"hasRole","inputs":[{"name":"role","type":"bytes32","internalType":"bytes32"},{"name":"account","type":"address","internalType":"address"}],"outputs":[{"name":"","type":"bool","internalType":"bool"}],"stateMutability":"view"},{"type":"function","name":"name","inputs":[],"outputs":[{"name":"","type":"string","internalType":"string"}],"stateMutability":"view"},{"type":"function","name":"originalTicker","inputs":[],"outputs":[{"name":"","type":"string","internalType":"string"}],"stateMutability":"view"},{"type":"function","name":"pause","inputs":[],"outputs":[],"stateMutability":"nonpayable"},{"type":"function","name":"paused","inputs":[],"outputs":[{"name":"","type":"bool","internalType":"bool"}],"stateMutability":"view"},{"type":"function","name":"renounceRole","inputs":[{"name":"role","type":"bytes32","internalType":"bytes32"},{"name":"callerConfirmation","type":"address","internalType":"address"}],"outputs":[],"stateMutability":"nonpayable"},{"type":"function","name":"revokeRole","inputs":[{"name":"role","type":"bytes32","internalType":"bytes32"},{"name":"account","type":"address","internalType":"address"}],"outputs":[],"stateMutability":"nonpayable"},{"type":"function","name":"supportsInterface","inputs":[{"name":"interfaceId","type":"bytes4","internalType":"bytes4"}],"outputs":[{"name":"","type":"bool","internalType":"bool"}],"stateMutability":"view"},{"type":"function","name":"symbol","inputs":[],"outputs":[{"name":"","type":"string","internalType":"string"}],"stateMutability":"view"},{"type":"function","name":"totalBridged","inputs":[],"outputs":[{"name":"","type":"uint256","internalType":"uint256"}],"stateMutability":"view"},{"type":"function","name":"totalSupply","inputs":[],"outputs":[{"name":"","type":"uint256","internalType":"uint256"}],"stateMutability":"view"},{"type":"function","name":"transfer","inputs":[{"name":"to","type":"address","internalType":"address"},{"name":"value","type":"uint256","internalType":"uint256"}],"outputs":[{"name":"","type":"bool","internalType":"bool"}],"stateMutability":"nonpayable"},{"type":"function","name":"transferFrom","inputs":[{"name":"from","type":"address","internalType":"address"},{"name":"to","type":"address","internalType":"address"},{"name":"value","type":"uint256","internalType":"uint256"}],"outputs":[{"name":"","type":"bool","internalType":"bool"}],"stateMutability":"nonpayable"},{"type":"function","name":"unpause","inputs":[],"outputs":[],"stateMutability":"nonpayable"},{"type":"event","name":"Approval","inputs":[{"name":"owner","type":"address","indexed":true,"internalType":"address"},{"name":"spender","type":"address","indexed":true,"internalType":"address"},{"name":"value","type":"uint256","indexed":false,"internalType":"uint256"}],"anonymous":false},{"type":"event","name":"BridgeBurn","inputs":[{"name":"from","type":"address","indexed":true,"internalType":"address"},{"name":"amount","type":"uint256","indexed":false,"internalType":"uint256"},{"name":"btcAddress","type":"string","indexed":false,"internalType":"string"}],"anonymous":false},{"type":"event","name":"BridgeMint","inputs":[{"name":"to","type":"address","indexed":true,"internalType":"address"},{"name":"amount","type":"uint256","indexed":false,"internalType":"uint256"},{"name":"btcTxHash","type":"string","indexed":false,"internalType":"string"}],"anonymous":false},{"type":"event","name":"Paused","inputs":[{"name":"account","type":"address","indexed":false,"internalType":"address"}],"anonymous":false},{"type":"event","name":"RoleAdminChanged","inputs":[{"name":"role","type":"bytes32","indexed":true,"internalType":"bytes32"},{"name":"previousAdminRole","type":"bytes32","indexed":true,"internalType":"bytes32"},{"name":"newAdminRole","type":"bytes32","indexed":true,"internalType":"bytes32"}],"anonymous":false},{"type":"event","name":"RoleGranted","inputs":[{"name":"role","type":"bytes32","indexed":true,"internalType":"bytes32"},{"name":"account","type":"address","indexed":true,"internalType":"address"},{"name":"sender","type":"address","indexed":true,"internalType":"address"}],"anonymous":false},{"type":"event","name":"RoleRevoked","inputs":[{"name":"role","type":"bytes32","indexed":true,"internalType":"bytes32"},{"name":"account","type":"address","indexed":true,"internalType":"address"},{"name":"sender","type":"address","indexed":true,"internalType":"address"}],"anonymous":false},{"type":"event","name":"Transfer","inputs":[{"name":"from","type":"address","indexed":true,"internalType":"address"},{"name":"to","type":"address","indexed":true,"internalType":"address"},{"name":"value","type":"uint256","indexed":false,"internalType":"uint256"}],"anonymous":false},{"type":"event","name":"Unpaused","inputs":[{"name":"account","type":"address","indexed":false,"internalType":"address"}],"anonymous":false},{"type":"error","name":"AccessControlBadConfirmation","inputs":[]},{"type":"error","name":"AccessControlUnauthorizedAccount","inputs":[{"name":"account","type":"address","internalType":"address"},{"name":"neededRole","type":"bytes32","internalType":"bytes32"}]},{"type":"error","name":"ERC20InsufficientAllowance","inputs":[{"name":"spender","type":"address","internalType":"address"},{"name":"allowance","type":"uint256","internalType":"uint256"},{"name":"needed","type":"uint256","internalType":"uint256"}]},{"type":"error","name":"ERC20InsufficientBalance","inputs":[{"name":"sender","type":"address","internalType":"address"},{"name":"balance","type":"uint256","internalType":"uint256"},{"name":"needed","type":"uint256","internalType":"uint256"}]},{"type":"error","name":"ERC20InvalidApprover","inputs":[{"name":"approver","type":"address","internalType":"address"}]},{"type":"error","name":"ERC20InvalidReceiver","inputs":[{"name":"receiver","type":"address","internalType":"address"}]},{"type":"error","name":"ERC20InvalidSender","inputs":[{"name":"sender","type":"address","internalType":"address"}]},{"type":"error","name":"ERC20InvalidSpender","inputs":[{"name":"spender","type":"address","internalType":"address"}]},{"type":"error","name":"EnforcedPause","inputs":[]},{"type":"error","name":"ExpectedPause","inputs":[]}],"bytecode":{"object":"0x60a060405234620004db5762001a37803803806200001d81620004e0565b9283398101608082820312620004db5781516001600160401b0390818111620004db57826200004e91850162000506565b91602080850151838111620004db57826200006b91870162000506565b916040860151848111620004db576060916200008991880162000506565b95015194845191848311620003db576003938454936001978886811c96168015620004d0575b84871014620004ba578190601f9687811162000464575b508490878311600114620003fd57600092620003f1575b505060001982881b1c191690881b1785555b8051868111620003db5760049182548981811c91168015620003d0575b85821014620003bb5790818784931162000365575b508490878311600114620002fe57600092620002f2575b505060001982881b1c191690881b1781555b8251958611620002dd57600754908782811c92168015620002d2575b83831014620002bd575083811162000271575b5080928511600114620002015750938394918492600095620001f5575b50501b92600019911b1c1916176007555b608052620001b53362000578565b50620001c133620005f9565b50620001cd336200069c565b506040516112dc90816200073b8239608051818181610412015281816105de015261083e0152f35b01519350388062000196565b92919084601f198116600760005285600020956000905b898383106200025657505050106200023b575b50505050811b01600755620001a7565b01519060f884600019921b161c19169055388080806200022b565b85870151895590970196948501948893509081019062000218565b6007600052816000208480880160051c820192848910620002b3575b0160051c019087905b828110620002a657505062000179565b6000815501879062000296565b925081926200028d565b602290634e487b7160e01b6000525260246000fd5b91607f169162000166565b604190634e487b7160e01b6000525260246000fd5b01519050388062000138565b908a9350601f1983169185600052866000209260005b888282106200034e575050841162000335575b505050811b0181556200014a565b0151600019838a1b60f8161c1916905538808062000327565b8385015186558e9790950194938401930162000314565b90915083600052846000208780850160051c820192878610620003b1575b918c91869594930160051c01915b828110620003a157505062000121565b600081558594508c910162000391565b9250819262000383565b602284634e487b7160e01b6000525260246000fd5b90607f16906200010c565b634e487b7160e01b600052604160045260246000fd5b015190503880620000dd565b908a9350601f1983169189600052866000209260005b888282106200044d575050841162000434575b505050811b018555620000ef565b0151600019838a1b60f8161c1916905538808062000426565b8385015186558e9790950194938401930162000413565b90915087600052846000208780850160051c820192878610620004b0575b918c91869594930160051c01915b828110620004a0575050620000c6565b600081558594508c910162000490565b9250819262000482565b634e487b7160e01b600052602260045260246000fd5b95607f1695620000af565b600080fd5b6040519190601f01601f191682016001600160401b03811183821017620003db57604052565b919080601f84011215620004db5782516001600160401b038111620003db576020906200053c601f8201601f19168301620004e0565b92818452828287010111620004db5760005b8181106200056457508260009394955001015290565b85810183015184820184015282016200054e565b6001600160a01b031660008181527f05b8ccbb9d4d8fb16ea74ce3c29a41f1b461fbdaff4714a0d9a8eb05499746bc602052604081205490919060ff16620005f55781805260056020526040822081835260205260408220600160ff19825416179055339160008051602062001a178339815191528180a4600190565b5090565b6001600160a01b031660008181527f988aeb3f2a802de2ecc83b89d9bb5001cae38c2cd77d61f12e069385e0b07e3560205260408120549091907f52ba824bfabc2bcfcdf7f0edbb486ebb05e1836c90e78047efeb949990f72e5f9060ff16620006975780835260056020526040832082845260205260408320600160ff1982541617905560008051602062001a17833981519152339380a4600190565b505090565b6001600160a01b031660008181527f99f2891db7a8db76249871a02b43b68c0bb8f22ef8a3bc1034ae9375ef6b7c3c60205260408120549091907f65d7a28e3265b37a6474929f336521b332c1681b933f6cb9f3376673440d862a9060ff16620006975780835260056020526040832082845260205260408320600160ff1982541617905560008051602062001a17833981519152339380a460019056fe608060408181526004908136101561001657600080fd5b600092833560e01c90816301ffc9a714610db55750806306fdde0314610ce6578063095ea7b314610c3c57806318160ddd14610c1d57806323b872dd14610b2a578063248a9ca314610aff5780632f2ff15d14610ad7578063313ce56714610abb57806336568abe14610a745780633f4ba83a14610a0a5780634a05ae93146109d25780635c975abb146109ae57806367a1791a1461098f57806367d74de2146107f457806370a08231146107bd5780638456cb591461076257806391d148541461071b57806395d89b4114610624578063a217fddf14610609578063a66a5c65146105c1578063a9059cbb14610590578063aa4950e314610470578063b5bfddea14610435578063c409d4d9146103fa578063d547741f146103bc578063dd62ed3e14610373578063e63ab1e9146103345763e8b9d93c1461015857600080fd5b346103305761016636610eb2565b90919261017161110f565b610179611288565b610184831515610f3b565b60018060a01b038416948587526020948786528483892054106102f757868852600886528483892054106102bc57868852600886528288206101c7868254610faa565b90556101d585600954610faa565b60095586156102a65786885287865282882054918583106102725750509161026c91847f35e2167161db5b6e560d143c51984d248beb108dc517fb4b51c4808cc4498811969594888a528987520381892055836002540360025587877fddf252ad1be2c89b69c2b068fc378daa952ba7f163c4a11628f55a4df523b3ef878451888152a38080519586958652850152830190610e09565b0390a280f35b835163391434e360e21b81526001600160a01b03909216908201908152602081018390526040810186905281906060010390fd5b50866024925191634b637e8f60e11b8352820152fd5b5084606492519162461bcd60e51b83528201526016602482015275115e18d959591cc8189c9a5919d95908185b5bdd5b9d60521b6044820152fd5b5084606492519162461bcd60e51b83528201526014602482015273496e73756666696369656e742062616c616e636560601b6044820152fd5b8280fd5b83823461036f578160031936011261036f57602090517f65d7a28e3265b37a6474929f336521b332c1681b933f6cb9f3376673440d862a8152f35b5080fd5b83823461036f578060031936011261036f5780602092610391610e49565b610399610e64565b6001600160a01b0391821683526001865283832091168252845220549051908152f35b50346103305780600319360112610330576103f691356103f160016103df610e64565b9383875260056020528620015461116b565b611211565b5080f35b83823461036f578160031936011261036f57602090517f00000000000000000000000000000000000000000000000000000000000000008152f35b83823461036f578160031936011261036f57602090517f52ba824bfabc2bcfcdf7f0edbb486ebb05e1836c90e78047efeb949990f72e5f8152f35b50823461058d578060031936011261058d57815191816007549260018460011c9160018616958615610583575b6020968785108114610570578899509688969785829a5291826000146105495750506001146104ed575b5050506104e992916104da910385610e7a565b51928284938452830190610e09565b0390f35b9190869350600783527fa66cc928b5edb82af9bd49922954155ab7b0942694bea4ce44661d9a8736c6885b82841061053157505050820101816104da6104e96104c7565b8054848a018601528895508794909301928101610518565b60ff19168782015293151560051b860190930193508492506104da91506104e990506104c7565b634e487b7160e01b835260228a52602483fd5b92607f169261049d565b80fd5b83823461036f578060031936011261036f576020906105ba6105b0610e49565b6024359033610fb7565b5160018152f35b83823461036f578160031936011261036f576020906106026009547f0000000000000000000000000000000000000000000000000000000000000000610faa565b9051908152f35b83823461036f578160031936011261036f5751908152602090f35b50823461058d578060031936011261058d578151918184549260018460011c9160018616958615610711575b6020968785108114610570579087899a92868b999a9b5291826000146106e757505060011461068c575b85886104e9896104da848a0385610e7a565b815286935091907f8a35acfbc15ff81a39ae7d344fd709f28e8600b4aa8c65c6b64bfe7fe36bd19b5b8284106106cf57505050820101816104da6104e98861067a565b8054848a0186015288955087949093019281016106b5565b60ff19168882015294151560051b870190940194508593506104da92506104e9915089905061067a565b92607f1692610650565b5090346103305781600319360112610330578160209360ff9261073c610e64565b90358252600586528282206001600160a01b039091168252855220549151911615158152f35b83823461036f578160031936011261036f5760207f62e78cea01bee320cd4e420270b5ea74000d11b0c9f74754ebdbfc544b05a258916107a0611095565b6107a8611288565b600160ff19600654161760065551338152a180f35b83823461036f57602036600319011261036f5760209181906001600160a01b036107e5610e49565b16815280845220549051908152f35b50346103305761080336610eb2565b909161080d61110f565b610815611288565b6001600160a01b031693841561094c57610830831515610f3b565b61083c83600954610f87565b7f00000000000000000000000000000000000000000000000000000000000000001061091057509061026c7f53f34adc5274839ae8004dad53bf3b47baa078f68e80266e142092775593f3df939285875260086020528387206108a0848254610f87565b90556108ae83600954610f87565b6009556108bd83600254610f87565b6002558587528660205283872083815401905585877fddf252ad1be2c89b69c2b068fc378daa952ba7f163c4a11628f55a4df523b3ef60208751878152a383519384938452806020850152830190610e09565b606490602085519162461bcd60e51b8352820152601660248201527545786365656473206272696467656420737570706c7960501b6044820152fd5b606490602085519162461bcd60e51b8352820152601b60248201527f43616e6e6f74206d696e7420746f207a65726f206164647265737300000000006044820152fd5b83823461036f578160031936011261036f576020906009549051908152f35b83823461036f578160031936011261036f5760209060ff6006541690519015158152f35b83823461036f57602036600319011261036f5760209181906001600160a01b036109fa610e49565b1681526008845220549051908152f35b509034610330578260031936011261033057610a24611095565b6006549060ff821615610a66575060ff1916600655513381527f5db9ee0a495bf2e6ff9c91a7834c1ba4fdd244a5e8aa4e537bd38aeae4b073aa90602090a180f35b8251638dfc202b60e01b8152fd5b5082903461036f578060031936011261036f57610a8f610e64565b90336001600160a01b03831603610aac57506103f6919235611211565b5163334bd91960e11b81528390fd5b83823461036f578160031936011261036f576020905160128152f35b50346103305780600319360112610330576103f69135610afa60016103df610e64565b611191565b5090346103305760203660031901126103305781602093600192358152600585522001549051908152f35b50913461058d57606036600319011261058d57610b45610e49565b610b4d610e64565b916044359360018060a01b038316808352600160205286832033845260205286832054916000198310610b89575b6020886105ba898989610fb7565b868310610bf1578115610bda573315610bc3575082526001602090815286832033845281529186902090859003905582906105ba38610b7b565b8751634a1406b160e11b8152908101849052602490fd5b875163e602df0560e01b8152908101849052602490fd5b8751637dc7a0d960e11b8152339181019182526020820193909352604081018790528291506060010390fd5b83823461036f578160031936011261036f576020906002549051908152f35b509034610330578160031936011261033057610c56610e49565b602435903315610ccf576001600160a01b0316918215610cb857508083602095338152600187528181208582528752205582519081527f8c5be1e5ebec7d5bd14f71427d1e84f3dd0314c0f7b2291e5b200ac8c7c3b925843392a35160018152f35b8351634a1406b160e11b8152908101859052602490fd5b835163e602df0560e01b8152808401869052602490fd5b50823461058d578060031936011261058d57815191816003549260018460011c9160018616958615610dab575b6020968785108114610570578899509688969785829a529182600014610549575050600114610d4f575050506104e992916104da910385610e7a565b9190869350600383527fc2575a0e9e593c00f959f8c92f12db2869c3395a3b0502d05e2516446f71f85b5b828410610d9357505050820101816104da6104e96104c7565b8054848a018601528895508794909301928101610d7a565b92607f1692610d13565b84908434610330576020366003190112610330573563ffffffff60e01b81168091036103305760209250637965db0b60e01b8114908115610df8575b5015158152f35b6301ffc9a760e01b14905083610df1565b919082519283825260005b848110610e35575050826000602080949584010152601f8019910116010190565b602081830181015184830182015201610e14565b600435906001600160a01b0382168203610e5f57565b600080fd5b602435906001600160a01b0382168203610e5f57565b90601f8019910116810190811067ffffffffffffffff821117610e9c57604052565b634e487b7160e01b600052604160045260246000fd5b6060600319820112610e5f576004356001600160a01b0381168103610e5f57916024359167ffffffffffffffff604435818111610e5f5782602382011215610e5f578060040135918211610e9c5760405192610f18601f8401601f191660200185610e7a565b82845260248383010111610e5f5781600092602460209301838601378301015290565b15610f4257565b60405162461bcd60e51b815260206004820152601d60248201527f416d6f756e74206d7573742062652067726561746572207468616e20300000006044820152606490fd5b91908201809211610f9457565b634e487b7160e01b600052601160045260246000fd5b91908203918211610f9457565b916001600160a01b0380841692831561107c57169283156110635760009083825281602052604082205490838210611031575091604082827fddf252ad1be2c89b69c2b068fc378daa952ba7f163c4a11628f55a4df523b3ef958760209652828652038282205586815220818154019055604051908152a3565b60405163391434e360e21b81526001600160a01b03919091166004820152602481019190915260448101839052606490fd5b60405163ec442f0560e01b815260006004820152602490fd5b604051634b637e8f60e11b815260006004820152602490fd5b3360009081527f99f2891db7a8db76249871a02b43b68c0bb8f22ef8a3bc1034ae9375ef6b7c3c60205260409020547f65d7a28e3265b37a6474929f336521b332c1681b933f6cb9f3376673440d862a9060ff16156110f15750565b6044906040519063e2517d3f60e01b82523360048301526024820152fd5b3360009081527f988aeb3f2a802de2ecc83b89d9bb5001cae38c2cd77d61f12e069385e0b07e3560205260409020547f52ba824bfabc2bcfcdf7f0edbb486ebb05e1836c90e78047efeb949990f72e5f9060ff16156110f15750565b80600052600560205260406000203360005260205260ff60406000205416156110f15750565b906000918083526005602052604083209160018060a01b03169182845260205260ff6040842054161560001461120c5780835260056020526040832082845260205260408320600160ff198254161790557f2f8788117e7eff1d82e926ec794901d17c78024a50270940304540a733656f0d339380a4600190565b505090565b906000918083526005602052604083209160018060a01b03169182845260205260ff60408420541660001461120c578083526005602052604083208284526020526040832060ff1981541690557ff6391f5c32d9c69d2a47ea670b442974b53935d1edc7fd64eb21e047a839171b339380a4600190565b60ff6006541661129457565b60405163d93c066560e01b8152600490fdfea26469706673582212200d22c49c59481b0568275147b61b72bb387d13df5b12ace64cb80b5e78b0f65164736f6c634300081800332f8788117e7eff1d82e926ec794901d17c78024a50270940304540a733656f0d","linkReferences":{}},"methodIdentifiers":{"BRIDGE_ROLE()":"b5bfddea","DEFAULT_ADMIN_ROLE()":"a217fddf","PAUSER_ROLE()":"e63ab1e9","allowance(address,address)":"dd62ed3e","approve(address,uint256)":"095ea7b3","balanceOf(address)":"70a08231","bridgeBurn(address,uint256,string)":"e8b9d93c","bridgeCapacityRemaining()":"a66a5c65","bridgeMint(address,uint256,string)":"67d74de2","bridgedAmounts(address)":"4a05ae93","bridgedTotalSupply()":"c409d4d9","decimals()":"313ce567","getRoleAdmin(bytes32)":"248a9ca3","grantRole(bytes32,address)":"2f2ff15d","hasRole(bytes32,address)":"91d14854","name()":"06fdde03","originalTicker()":"aa4950e3","pause()":"8456cb59","paused()":"5c975abb","renounceRole(bytes32,address)":"36568abe","revokeRole(bytes32,address)":"d547741f","supportsInterface(bytes4)":"01ffc9a7","symbol()":"95d89b41","totalBridged()":"67a1791a","totalSupply()":"18160ddd","transfer(address,uint256)":"a9059cbb","transferFrom(address,address,uint256)":"23b872dd","unpause()":"3f4ba83a"},"id":29}